:020000022000DC
:1060000000000120756302005D6302005F6302000F
:106010006163020063630200656302000000000028
:1060200000000000000000000000000067630200A4
:1060300069630200000000006B6302006D630200F0
:10604000198602006F630200ED8702006F63020091
:106050006F6302006F630200A18602007592020066
:10606000A9980200BD980200D19802006F63020057
:106070006F6302006F6302006F6302006F630200D0
:106080006F630200C97602006F6302006F63020053
:106090006F6302006F63020071BF02006F63020052
:1060A0006F6302006F630200E5980200F998020036
:1060B0006F6302006F630200000000000000000038
:1060C0006F6302006F6302006F6302006F63020080
:1060D0006F6302006F6302006F6302000000000044
:1060E00000000000000000000000000000000000B0
:1060F00000000000000000000000000000000000A0
:10610000000000000000000000000000000000008F
:10611000000000000000000000000000000000007F
:10612000000000000000000000000000000000006F
:10613000000000000000000000000000000000005F
:10614000000000000000000000000000000000004F
:10615000000000000000000000000000000000003F
:10616000000000000000000000000000000000002F
:10617000000000000000000000000000000000001F
:10618000000000000000000000000000000000000F
:1061900000000000000000000000000000000000FF
:1061A00000000000000000000000000000000000EF
:1061B00000000000000000000000000000000000DF
:1061C00000000000000000000000000000000000CF
:1061D00000000000000000000000000000000000BF
:1061E00000000000000000000000000000000000AF
:1061F000000000000000000000000000000000009F
:10620000354936480A1A02D0072291438D4634494F
:1062100034480A1A06D00722914381F309880222E2
:1062200082F3148830483149314A00F044F831484B
:106230003149324A00F03FF831483249324A00F0E1
:106240003AF832483249334A00F035F83248334997
:10625000334A00F030F833483349344A00F02BF821
:1062600033483449344A00F026F83448344900228F
:1062700000F02CF833483449002200F027F8334866
:106280003349091A082902DB002202604160314AC1
:1062900090471F481F49884205D00268043003B464
:1062A000904703BCF7E700208646EC46002000211B
:1062B000294A9047FEE7884207D0521A05D0037852
:1062C00001300B700131013AF9D17047884202D098
:1062D00002700130FAE770470000012000E0002062
:1062E0000000012000000120C0DE0200E82A00209A
:1062F000902B0020D0630200D0630200D8CE0200B1
:10630000C0DE0200E82A0020E82A0020FCCF0200BC
:10631000FCCF0200FCCF0200FCCF0200FCCF020049
:10632000FCCF0200FCCF0200FCCF0200BFDE020067
:1063300068DF0200902B0020902B0020902B002083
:10634000443F0020443F0020483F0020483F0020B9
:10635000485F00209D63020071A60200FEE7FEE791
:10636000FEE7FEE7FEE7FEE7FEE7FEE7FEE7FEE705
:1063700000F002B8FFF7FCBF0F484FF00701884359
:1063800085460E4880470E48016841F4700101605F
:10639000BFF34F8FBFF36F8FFFF732BF09480A4932
:1063A0000A4A884207D0521A05D0037801300B7090
:1063B0000131013AF9D1704700000120318002001B
:1063C00088ED00E0FCCF0200E82A0020E82A002047
:1063D000004870473C3F00207047000007B5044B61
:1063E0000093044A402300F032F803B05DF804FB48
:1063F000F9630200912B00202DE9F84388461446EA
:10640000B2B10F4B0F4E0325002743F0010922467E
:1064100008EB0701002004F085FA0744241A48B964
:1064200033782BB14FF47A40C847013D02D1357023
:10643000BDE8F88301233370002CE8D1F8E700BFF2
:1064400000D00200902B0020704704F09BBAF0B5FA
:1064500095B01D46164608460C4601F0E3FC1A9B13
:106460000D93CDE9086500252B46082205A9204695
:106470000A958DF82C500C9501F0F0FC079B0293C7
:10648000069B03939DF814308DF8115003F003021E
:10649000012A1DD1BDF81420059DC3F3C203C2F328
:1064A00083168DF81030B20008230EA9204601F0A3
:1064B000D5FCC5F3952508AB0093324602AB0EA977
:1064C000284600F033FB204601F0B0FC15B0F0BDCB
:1064D000022AF8D1BDF81650C3F3C203C5F38915DB
:1064E0008DF810300827082D2E4628BF08263B4679
:1064F00032460EA9204601F0B1FCAD1B08AB02AA42
:1065000031460EA8374400F075FB002DEBD1DAE7D9
:1065100008B5FFF79AFF0448042100F071FA034B15
:1065200001225A7108BD00BFECCF0200E82A00200A
:10653000037813F0040216D003F00303012B03D0F9
:10654000022B09D0012070470A6800880232C0F38C
:10655000831002440A60F5E70B684288023303EBBC
:1065600092130B60EEE71046704700002DE9F04FE4
:10657000DFF81CA187B00F4600230446861C0DF1EE
:10658000070015468DF8073000F030FFDAF80420D8
:106590003A60DAF8083003F580739B1A0AF21C4758
:1065A0000AF583690AF21448B3421AD30020002D79
:1065B00069D004F00F039B0143F0050363F30F0060
:1065C000DAF80430DAB2033233444AF822009DF894
:1065D0000700CAF8043000F02DFF012007B0BDE825
:1065E000F08F0121384601F04CF9484601F061F97D
:1065F000404601F05EF9DAF808000290C0B20330BC
:106600000AEB800002A9FFF793FF029B30BBDAB2CE
:106610000AEB8202D16803919A1C0133DBB20AEBC8
:1066200083030292D3F80CB001F00303012B22D0B4
:10663000022B15D08346404601F03EF910B1029B73
:10664000CAF808305946384601F01BF9DAF8083024
:10665000DAF8042003F580739B1AA5E7D8B2CEE7D9
:10666000BDF80E30C3F3891303334FEA1B4B02EB23
:1066700093030293DFE7BDF80C30C3F383134FEAB3
:106680001B4B1344F5E7A40544F0060098E700BF50
:10669000A42C0020064B074810B500221A7001F008
:1066A0007AFB044610B9044801F022FC204610BDD4
:1066B000A42C002040CF02003CD0020030B50A4C90
:1066C00071B10A4A0A49121BD20800239A4201D129
:1066D000002030BD31F82350854202D00133F5E768
:1066E000034654F83300F4E754CF0200ECCF020025
:1066F000E82A0020094B013903EBC000032909D81F
:10670000DFE801F00A0204060420704700797047B0
:1067100040797047002070470220704754CF020034
:1067200070470000034BD3E90130C31A5842584167
:10673000704700BFA42C00202DE9F04186B0FFF780
:10674000F1FF0546002840F0ED80774CC4F81804AE
:10675000BFF34F8FA3680293DBB2033304EB8300D4
:1067600002A9FFF7E5FE029B18B1D4F81824002A0D
:106770005AD0DAB2991C013304EB8202DBB204EB8B
:106780008303D268DB68049302F00303022B0392B5
:10679000029154D1BDF80E306448C3F38917502FCD
:1067A0003E4628BF502606F1080166F38F13C1F359
:1067B0000901ADF80E3001F006FB0546002800F097
:1067C0009C8001F02FFB0023082203A9284601F03A
:1067D0003BFB0299CB43DBB20133C9B20331B6EBC9
:1067E000830F4FEA830204EB810125D95FFA82F817
:1067F0000823A6EB0806284601F026FBF6B208F1AE
:1068000008034B4903F0FC033246284601F01CFB09
:10681000029B033703EB97070297D4F81834002B39
:1068200043D1D4F8106453E062689A4294D8A260CD
:10683000284606B0BDE8F08108233246E5E7012B83
:106840005BD1BDF80C303948C3F38311062928BF4A
:10685000062161F38913023101F00F018900ADF8BF
:106860000C3001F0B0FA0546002846D001F0DAFA03
:106870000023082203A9284601F0E6FA0026BDF805
:106880000C20C2F38312B300964203F10803C4D272
:1068900002994A1CC9B20331029204EB810104221D
:1068A000284601F0D1FA0136E9E7284601F0BEFAA0
:1068B000FFF738FF80F00100C5B2B9E7F3685B79F4
:1068C00023B1336829461B6830469847F3681E6831
:1068D000002EF3D1284601F0A9FA0DF107008DF83A
:1068E000076000F083FDD4F818340BB9029BA36055
:1068F0009DF8070000F09EFDDAE7D4F8104454B983
:106900000C4B0D480D49C01AC008000440F00200AD
:1069100000F05EF8CCE7236820469B689847E36860
:106920001C68ECE7002583E7A42C002040CF020080
:10693000B02C002054CF020094CF020024D00200DB
:106940002DE9F34704460E46924601A90122184656
:106950009946FFF70BFE1C4F10B3019D4FF0000846
:10696000AA1CC84508EB020125D11848002100F0F7
:1069700059FF80F31000000440EA1440E4006B1C4F
:1069800004F03804DBB2EDB244F0010407EB8303FA
:10699000033544EA881444EA8624D86047F8254041
:1069A0003B781BB1FFF7C8FE0028FBD1FFF7B8FE0C
:1069B00002B0BDE8F087C9B207EB81015AF8283070
:1069C000CB6008F10108CCE7A42C0020C0300020E7
:1069D00000231A46FFF7B4BF07B50123019201AAAD
:1069E000FFF7AEFF03B05DF804FB07B5CDE9002368
:1069F00002236A46FFF7A4FF03B05DF804FB000022
:106A000030B50F4CD4F8102403460020114631B99C
:106A1000D96808714AB9C4F810340A6030BDC96831
:106A20000D79854206D00968F1E7D26814680C60D8
:106A30001360F3E701300A28E8D14FF0FF30EDE7AB
:106A4000A42C002038B5084B0125D3F810441D7044
:106A500004B938BDE3685D71236820465B689847D8
:106A6000E3681C68F4E700BFA42C002030B5C3889D
:106A700085B004460D4633B1144A00921449154AB4
:106A8000284600F07CFF217A05291DD0637A4BB19E
:106A9000A088FFF72FFE104B104953F820202846FE
:106AA00000F06DFF227A0E4BA08853F8222003924B
:106AB0000021FFF703FE039A0A490346284605B062
:106AC000BDE8304000F05BBF05B030BD68D00200CB
:106AD00050D0020048D00200D4D002005BD70200A0
:106AE000F8D002006DD0020007B503460846197AB7
:106AF000052911D05B7A2BB1094A0A49019000F0AF
:106B00003EFF01980849019000F039FF019803B059
:106B10005DF804EB00F028BF002AF8D0F2E700BFD0
:106B200068D002005BD7020033D702002DE9F043A2
:106B300085B01F460C9D002395F80C902B730646DC
:106B40000C46904629463846FFF790FFB8F1060FED
:106B500009D8DFE808F00412181F28334000314636
:106B6000284600F00CFF002229463846FFF7BCFFFC
:106B700085F80C9005B0BDE8F083226831462846C0
:106B800000F0FDFEEFE7D4E900233146284600F08F
:106B9000F6FEE8E7A36800933146D4E900232846CF
:106BA00000F0EDFEDFE7E3680193A3680093314650
:106BB000D4E90023284600F0E2FED4E723690293DB
:106BC000E3680193A36800933146D4E90023284683
:106BD00000F0D5FEC7E76369039323690293E36876
:106BE0000193A36800933146D4E90023284600F0BE
:106BF000C6FEB8E708292DE9F74F80460E4617462E
:106C00001C463DD800251B7B257321461046019369
:106C1000FFF72CFFDFF88CA0DFF88CB0AE4232D942
:106C200018F805205946204600F0A9FE0135082D28
:106C3000F4D11B49DFF874A0DFF874B0204600F0EF
:106C40009EFE4FF000094E4524D918F809507E2DBC
:106C50001ED8284605F062FC002814BF2A462E22C2
:106C60005946204600F08BFE09F10109B9F1080FE1
:106C7000E9D1012221463846FFF736FF019B2373F5
:106C800003B0BDE8F08F5146204600F078FECDE716
:106C90002E22E5E75146204600F071FEE4E700BFF2
:106CA00081D002007DD0020077D002007FD00200A8
:106CB00083D002001FB50021039001AA44F2010015
:106CC000CDE9011100F004F805B05DF804FB000007
:106CD00038B572B6FFF7B6FEFFF72EFD0028FBD1E0
:106CE000104B114C114D1249E41AE408240444F0ED
:106CF0000100FFF76DFED5F8F030DB0700D500BED0
:106D00000C4944F00200FFF763FEBFF34F8FEA68BF
:106D1000094B02F4E0621343EB60BFF34F8F00BFF7
:106D2000FDE700BF54CF020094CF020000ED00E069
:106D300017D1020023D102000400FA0549B152B173
:106D4000531E1A4007D1826001608380C2601046E2
:106D500070470E2070470920704710B58468C268DC
:106D60008388121B934208D3C26813400268D1542F
:106D7000C3680133C360002010BD0420FCE78268B3
:106D8000C3689A420AD08268838813400268D35C41
:106D90000B708368013383600020704705207047C3
:106DA00010B5D0E90243D1E90202A04272EB03031D
:106DB0002CBF0120002010BD08B50A4800F06DFC72
:106DC000094AD2E90031C018084BD3E9002341F148
:106DD0000001904271EB030303D210F1807041F186
:106DE000000108BDF02A002060310020D8310020C9
:106DF00037B505460C460A4801A900F082FC60B18F
:106E00000570446001A9064800F0A5FC18B10548CA
:106E100000F048FC002003B030BD0420FBE700BFB9
:106E2000C4310020F02A0020294B73B51E78044697
:106E30001EB90026304602B070BD0028F9D0FFF719
:106E4000BBFFD4E902239042994139D300230DF1CD
:106E500007008DF8073000F0C9FA23692BB94FF00D
:106E6000FF324FF0FF33C4E902239DF8070000F022
:106E7000E1FAD4E90530984700250DF107008DF8B7
:106E8000075000F0B3FA2369C3B1D4E90212B2F19A
:106E9000FF3F08BFB1F1FF3F05D05B1842F1000290
:106EA000C4E9023235469DF8070000F0C3FA002D10
:106EB000BFD00848214601F03AF8BBE71D46F2E78B
:106EC000B3F1FF3F08BFB2F1FF3FB2D0F1E700BF1F
:106ED0006831002040D1020013B5114B11491868E8
:106EE000019008231048582200F0F8FB044698B996
:106EF0000E4A0F4801A900F0C1FA044660B90C48D7
:106F0000012100F0ADFB01230A4A0948194600F0AF
:106F10000FFB094B01221A70204602B010BD00BFC2
:106F20003AD102006C310020C431002019700200F7
:106F3000F02A0020FFFF7F006831002030B56AB1E1
:106F400003684FF0FF344FF0FF355A614A1E51423B
:106F5000C3E9024551411961002030BD0720FCE71B
:106F6000F7B5044600250DF1070017460E468DF8CB
:106F7000075000F03BFAD4E90223B3F1FF3F08BF0A
:106F8000B2F1FF3F07D1FFF717FF301841F10001C1
:106F9000C4E9020101259DF8070000F04BFA55B144
:106FA0002369A76103B126612146002003B0BDE833
:106FB000F040FFF71DBF284603B0F0BD37B50546CA
:106FC00000240DF107008DF8074000F00FFAD5E915
:106FD0000223B3F1FF3F08BFB2F1FF3F1FBF4FF0E5
:106FE000FF324FF0FF33C5E9022301249DF807006B
:106FF00000F020FA34B12946012003B0BDE830404A
:10700000FFF7F6BE204603B030BD0000014800F097
:1070100044BB00BFF02A00202DE9F743064600F0EC
:1070200027FB40B1624AD2E9003113F1807341F18C
:107030000001C2E900310021304600F028FB38B1E0
:107040005C4C236823B12068FFF7EEFE0023236029
:107050000121304600F01BFB20B1FFF7ADFE564B7F
:10706000C3E900015548534C01A900F084FB4FF0DF
:10707000FF384FF0FF39A0B9DFF844814D4D40464D
:1070800000F06BFF002800F08580D0E90223B3F107
:10709000FF3F08BFB2F1FF3F32D1404600F057FF3B
:1070A000EDE70378012B20D0022B08D1444D284670
:1070B00000F04DFF002877D0C0E90289F7E75BB9FF
:1070C0004168D1E90223B3F1FF3F08BFB2F1FF3FAE
:1070D00002D03B4800F02BFF01A9384800F076FBB6
:1070E00001A9364800F047FBC5E74168236899428B
:1070F00002D100232360EFE7314800F031FFEBE7D6
:10710000296891B12968D1E9020182428B412FD2CD
:107110002B68D3E90223B3F1FF3F08BFB2F1FF3F71
:1071200003D02968404600F002FF404600F00FFF00
:10713000D0E902490746FFF73FFE201A69EB010933
:10714000012879F1000318DBB0F5350F13D3FFF7F1
:107150005DFF1C4A02441C484FF49603002100F0D6
:1071600007FA90B92B6813B9304600F0D9F92F60AF
:1071700003B0BDE8F0832246EDE71348002100F09C
:107180007CFA3846FFF750FE01E00D28F9D00023C5
:107190002B6074E7074B1B68002BE9D1304603B026
:1071A000BDE8F04300F0C0B9084B01221A7093E724
:1071B00060310020E0310020D8310020C4310020AF
:1071C00040D10200FFFFB400F02A00206831002007
:1071D0000648074A03780749D35C012213B10430FB
:1071E00001F064BF0C3001F027BD00BFF82A002079
:1071F000543200200C3200200648074A0378074921
:10720000D35C012213B1043001F002BF0C3001F055
:10721000C3BC00BFF82A0020543200200D320020E9
:1072200037B50578012D0DD0022D30D075B91F4925
:107230001F48FFF7A4FD002834D103B0BDE830405B
:10724000FFF7DABF037A1BB9FFF7C2FF03B030BD07
:107250004368184C19782046FFF77FFD80B18DF800
:1072600000500190144B68461B689847A168E3687A
:10727000A2885B1A9A42E7D2104B01221A70E5E706
:10728000A268E3689A42F1D08DF80000EAE7C3688B
:107290008DF800500193FFF79BFF074B68461B6872
:1072A0009847D3E703238DF80030F6E70D3200202E
:1072B000FC310020E8310020E4310020F8310020CA
:1072C000F0B51F46234B89B004461A600D460029CD
:1072D0003DD08A8820480968FFF730FD002834D166
:1072E000AA89A9681D48FFF729FD00282DD11C4E49
:1072F0000FCE6D460FC596E80F0085E80F00636955
:107300000693237C174A18488DF81C70003B18BF61
:1073100001238DF81430637C002B14BF0E2300234F
:107320008DF81530E3680293A368039323680193F3
:1073300069466368009301F0F7F830B90B4B187099
:107340002368013301D0FFF743FF09B0F0BD0720E8
:10735000FBE700BFE4310020E8310020FC310020D1
:107360004CD1020021720200F82A0020F8310020DE
:1073700070B5084D014608482E78FFF700FD044619
:1073800036B100232B70FFF723FF08B1FFF792FC03
:10739000204670BDF8310020E831002010B50146CC
:1073A0000E48FFF7DAFC0446A8B90D480D4A0378E9
:1073B000D35C63B1043001F01FFE60B90A4907488D
:1073C000FFF7DDFC38B9BDE81040FFF715BF0C3002
:1073D00001F0D6FBF1E7204610BD00BFFC310020D4
:1073E000F82A0020543200200D32002070B5EFF34F
:1073F000108672B60C4A946801239CB993600B4BBB
:107400000B4DD3F8801029401160C3F88050D3F899
:10741000841051604FF0FF32C3F88420047006B925
:1074200062B670BD0370FAE71032002000E100E0A0
:10743000FC06FFBD084B9A6810B55AB150B9EFF37E
:10744000108172B6054A1C6814605C6854609860CC
:1074500001B962B610BD00BF1032002000E100E0AB
:10746000435882B03BB10023435043580193019BE2
:10747000012002B070471846FBE70000F8B5204B2A
:107480004479204E43F824201F4A204B06EBC404C5
:107490009B1A2279DB081B0432B143F002001C491D
:1074A000FFF796FA0820F8BD02680C88C2F8084574
:1074B00090F904508A7804795201002DD2B219DB78
:1074C00014494F1987F8002301226D0904F01F04A5
:1074D00002FA04F441F82540427906EBC201012486
:1074E00046F832000C7143F003000B49FFF770FAC5
:1074F0000020D8E7094904F00F040A55ECE700BF63
:10750000243200201C32002054CF0200A4CF0200FD
:107510006CD1020000E100E08ED1020014ED00E029
:10752000036801221A607047036801225A6070479D
:1075300073B501F15005AD000068ADB24FF4803471
:107540008C400026C0F80843C0F84843465101F576
:10755000A8714559019522F07F42019D40F82120F4
:10756000C0F844430BB1C0F8044302B070BD000042
:107570002DE9F74F0D4622F07F4402684FF4803723
:1075800005F150068F408046B60002EB8500C2F838
:107590004873B6B2C2F80873D2F8041599464FF092
:1075A000000BD0F84035C0F8401542F806B05B1A21
:1075B0009259009223F07F43012B009A4FEA850AEB
:1075C0000CD1264B4FF4806043F001039847D8F864
:1075D000003043F806B09B590193019BD8F8001086
:1075E000D1F80465C1F84473A31B23F07F43012B3A
:1075F0001CD11A4B05F5A875013443F0010341F87D
:1076000025404FF480609847D8F80030D3F804350F
:107610009E4209D1D8F800300020C3F84473C3F863
:10762000047303B0BDE8F08F0D20FAE78A44C9F176
:10763000FF13CAF84045D1F80405221A013A22F096
:107640007F4203F57F439342EED3002AE2D1013417
:10765000CAF84045D1F804359842DAE7A0D10200D3
:1076600003680222C3F8442309B1C3F80423704716
:1076700000684FF48271FFF7F3BE4FF4803303FAD2
:1076800001F10368C3F84813C3F808137047503179
:107690008900006889B2FFF7E3BE0368D3F80405E8
:1076A0007047000090F90430002B09DB5A090121D2
:1076B00003F01F0301FA03F34032024941F822307C
:1076C000704700BF00E100E0024B034A1B681068EE
:1076D000184700BF243200201C32002010B561B1D1
:1076E000B2FBF3F403FB1424A4B244B9C0E90014C0
:1076F00084608281C381204610BD0E20FCE70920F2
:10770000FAE737B550E8013F9DB2C4892544848922
:10771000A54228BF2D1B0489A54202BFBFF32F8FAE
:10772000002207E0C5EA030540E80154002CE9D136
:107730004FF001028DF803200193019A0A609DF831
:10774000031001F0FF0321B1006810FA82F003B0CA
:1077500030BD1846FBE70A884B889A4209D150E8A9
:10776000012FC2EA024240E80123002BF7D1012099
:1077700070470020704737B550E8023F1FFAA3F565
:10778000C488A54202BFBFF32F8F00220DE0C48939
:1077900025448489A54228BF2D1BC3EA054540E83E
:1077A0000254002CE8D14FF001028DF80320019320
:1077B000019A0A609DF8031001F0FF0321B10068EF
:1077C00000EB124003B030BD1846FBE70A884B8837
:1077D0009A4209D150E8022FC2EA224240E802232D
:1077E000002BF7D1012070470020704701F01F02E5
:1077F0004B090121914000EB830000F01EB801F01D
:107800001F0301229A404B0900EB8300D14300F093
:107810002CB84B0901F01F0150F82300C84000F0BC
:107820000100704710B5034653E8000F0A4643E8CD
:10783000002494F0000FF7D110BD10B5034653E8B3
:10784000002F42EA010043E8000494F0000FF6D153
:1078500010BD10B5034653E8000F00EA010243E8EB
:10786000002494F0000FF6D110BD10B5034653E884
:10787000002F02EA010043E8000494F0000FF6D163
:1078800010BD10B5034653E8002F02EB010043E89A
:10789000000494F0000FF6D110BD10B5034653E874
:1078A000002FA2EB010043E8000494F0000FF6D192
:1078B00010BD0121FFF7C1BF0021FFF7CABF10B5FE
:1078C00090B1D0E9012301689B1ADBB20A60013B49
:1078D000DBB2FF2B026802D10020107110BD1168CD
:1078E0004C1C14600B70F2E70E20F7E737B5054625
:1078F00000240DF107008DF80740FFF777FD2A6897
:107900006B68116899420ED9481E106011F8013C4D
:10791000EC68298A01FB0344AB6811791B1ADBB2BE
:10792000994238BF13719DF80700FFF783FD204689
:1079300003B030BD37B5054600230DF107000C46F6
:107940008DF80730FFF752FD2A681368591C116043
:10795000E968641A298AB4FBF1F41C709DF80700E9
:10796000FFF768FD03B030BD826810B504462AB148
:1079700043690168006998470023A36010BD0EB4F5
:1079800003B5039921B104AB01AA019300F076F885
:1079900002B05DF804EB03B070470A2938B504461D
:1079A0000D4602D10D21FFF7F8FFA3682268591C8C
:1079B000A160D554D4E901329A4204D32046BDE8EF
:1079C0003840FFF7D1BF38BD2DE9F84F9846DDE9C3
:1079D0000A43154682460F460A464FF00109AA425D
:1079E0000FD2C14538BFC14613F0010B01D16CB9AC
:1079F00000240126B8F1010F1BD908F1FF386E43AE
:107A0000F8E709F10109B2FBF5F2E8E79B070ED5AB
:107A1000B8F1000F0CBF30262026A145E9D2013C69
:107A200031465046FFF7B9FF002CF6D1E0E720269B
:107A3000F3E7B7FBF6F39D42E1D9DFF83C80B7FBF3
:107A4000F6F3504618F8031006FB1377FFF7A5FF6F
:107A50003346AB42B6FBF5F6F1D2BBF1000F02D0D4
:107A60000CB1A14501D3BDE8F88F20215046013C5F
:107A7000FFF793FFF4E700BFA6D102002DE9F74F0F
:107A8000054617468846002900F03E8118F8011B7C
:107A900049B92B7B002B00F03781284603B0BDE8A5
:107AA000F04FFFF761BF252940F0B780002698F816
:107AB00000302D2B424608F1010823D0302B24D072
:107AC0002B2B25D000242A2B02F1010123D13B6866
:107AD0001A1D1B683A601C440A4613782E2B26D1C7
:107AE00001324FF0000A104610F8011BA1F1300CD2
:107AF000BCF1090F1DD80A2303FB0A13A3F1300AB6
:107B00000246F0E746F00106D1E746F00206CEE76E
:107B100046F00406CBE711F8013CA3F13000092838
:107B2000DBD80A2202FB0434303C0A46CBE74FF094
:107B3000000A12F8011B01F0FB0068289046F8D0FB
:107B4000782909D86F290CD8632962D022D8252931
:107B500063D0582900F0888098F80030002B95D128
:107B600097E770390829F7D801A353F821F000BF2F
:107B7000E37C0200597B0200597B0200797C020001
:107B8000597B0200577C0200597B0200597B02009E
:107B9000697C0200642901D06929DDD13A68D2F8F4
:107BA0000090111D89EAE9723960A2EBE9724FF089
:107BB000010B092A35DCD34538BFD3462CB1B9F1C6
:107BC000000F01DB720700D5013CB30702D5BAF103
:107BD000000F03D0F00701D44CBB0024B9F1000F13
:107BE0002DDAC9F100092D212846FFF7D6FE06F04F
:107BF0000302022A04D1BAF1000F01D11CBB0024F8
:107C0000CDE9004653460A2249462846FFF7DCFEE6
:107C1000A2E73B681A1D19783A602846FFF7BDFEB7
:107C20009AE70A230BF1010BB2FBF3F2C1E7A3457C
:107C3000D4D220212846013CFFF7AFFECCE77107E4
:107C4000D5D52B21D0E7A345DAD230212846013CF7
:107C5000FFF7A3FED2E73968CDE900460A1D3A6076
:107C600053460A220968D0E739680A1D3A60CDE90F
:107C7000004653461022F5E73B681A1D3A6016F09D
:107C80000106D3F8009024D1B9F1000F03D0484683
:107C900004F0F0FD0646B4421DD809F1FF3919F889
:107CA000011F00293FF458AF2846FFF776FEF6E79C
:107CB00028460136FFF771FE19F806100029F7D1A2
:107CC000A642BFF449AF20212846013CFFF765FEDC
:107CD000F6E70026F0E720212846013CFFF75DFE8D
:107CE000D9E73B681A1D3A60302128461C68FFF727
:107CF00054FE78212846FFF750FE00220823CDE9E4
:107D000000322146102280E703B0BDE8F08F00BFAB
:107D10002DE9F84FB0F806A04579D2F800B09DF8EB
:107D200028900AFB05F5043D88460BEB0301A942A8
:107D300003F1040488BFA5EB030BB4FBFAF6074676
:107D40000AFB1644C2F800B04EB9AAEB04055D4523
:107D500028BF5D46BBF1000F04D1BDE8F88F3F6836
:107D6000013EF1E7043408EB06003C442A46B9F131
:107D7000000F0DD02146ABEB050B04F0FDFCDA45FE
:107D80002E443F6855464FF0000428BF5D46E1E7AA
:107D900001462046EFE7FFF792BDF8B54679014668
:107DA000721E0546002393422D6803D30024A64289
:107DB00002D8F8BD0133F6E70F682846FFF7BAFD91
:107DC00001343946F3E72DE9F843068ACD1C07460E
:107DD000FFF78CFD043E35440446B5FBF6F5F0B1E3
:107DE0004FF48073EDB28380C680013D0760814609
:107DF0004FF00008A84512D23846FFF777FD064637
:107E000048B163790133637108F10108C9F80000D2
:107E100007608146EEE72046FFF7BFFF3446204665
:107E2000BDE8F88301210430FFF72BBD10B5012117
:107E300004460430FFF731FDC0B220B92046BDE84A
:107E40001040FFF7AABF10BD1FB503920022009299
:107E500003AAFFF75DFF05B05DF804FB1FB50392B1
:107E60000122009203AAFFF753FF05B05DF804FB5F
:107E700041DF7047064B10B500241C70054B1C6099
:107E8000BFF35F8F0449054800F03BF8204610BD62
:107E90003032002034320020C0D1020028320020CD
:107EA00007B500230DF107008DF80730FFF79EFAA4
:107EB000F1EE103A23F09F03E1EE103ABFF35F8F2B
:107EC0000A4B4022C3F884219DF80700FFF7B2FA5D
:107ED00004F034F820B103B05DF804EBFFF7C8BF3D
:107EE00020BF40BF20BF03B05DF804FB00E100E00D
:107EF000836800225A60C3E904229A60DA601A603B
:107F000070470B684A684360934208BF00230160D2
:107F100008BF43607047436843B102689168526884
:107F20000B449342436004BF00234360704770B525
:107F3000446806460D46206818B1B368294698473C
:107F400018B923682B60256070BD2468F3E7436887
:107F5000186808B102681A6070474368186870476B
:107F60004368186800B97047884203D102681A60F4
:107F70000120704703460068F4E7000010B50D4982
:107F8000A1F59472914201D800200FE08C1AE30F02
:107F900003EBE4035B1002EBC30452F8333083427B
:107FA00005D802D204F10802ECE7606810BD214652
:107FB000E8E700BFCCD6020008B5FFF7DFFF024BB1
:107FC000002808BF184608BD8FD5020010B504462A
:107FD000C0B2FFF7E3F9204610BD4FF08053D3F84D
:107FE0003001421C04BF4FF0704393F8E00F831F31
:107FF00058425841704700004FF0704393F8E02F0B
:10800000062A09D1D3F8E83FC3F30313033B042B3B
:1080100002D8024AD05C704700207047DBD60200CD
:10802000024AD2F80034002BFBD0704700E0014038
:1080300010B5FFF7D2FF40B14FF08053944AD3F808
:108040002433C3F30423C2F84035FFF7D5FF10B142
:10805000904B914A5A67FFF7C0FF48B14FF08053E9
:108060004FF08042D3F84432C3F34233C2F83C3578
:10807000FFF7C2FF30B1894AD2F8FC3023F0807399
:10808000C2F8FC30FFF7A9FF40B14FF08043002257
:10809000C3F80C21C3F81021C3F83825FFF7ACFF53
:1080A00020B14FF080430322C3F8A025FFF7A4FFBF
:1080B00060B17B4B0522C3F810260122C3F8882645
:1080C0000022C3F818263F22C3F814264FF080532D
:1080D000D3F83021511C09BF4FF07043D3F834312D
:1080E00093F8E02FD3F8E83F08BFC3F30313062A41
:1080F0004DD1033B042B03D86A4AD35C002B46D0F6
:108100004FF08052684BD2F80414C3F82015D2F80F
:108110000814C3F82415D2F80C14C3F82815D2F8A3
:108120001014C3F82C15D2F81414C3F83015D2F873
:108130001814C3F83415D2F81C14C3F84015D2F83B
:108140002014C3F84415D2F82414C3F84815D2F803
:108150002814C3F84C15D2F82C14C3F85015D2F8D3
:108160003014C3F85415D2F83414C3F86015D2F89B
:108170003814C3F86415D2F83C14C3F86815D2F863
:108180004014C3F86C15D2F84424C3F87025FFF7E7
:1081900024FF48B14FF080534FF08042D3F858325B
:1081A00003F04F03C2F8E43EFFF717FF48B14FF06A
:1081B0008043D3F80024D20744BF6FF00102C3F814
:1081C00000244FF08053D3F83021062A0ED1D3F883
:1081D0003431033B042B02D8344AD35C33B1344AE4
:1081E000D2F83C3743F48063C2F83C372B4AD2F8CC
:1081F000883043F47003C2F88830BFF34F8FBFF369
:108200006F8F4FF08053D3F83021062A0FD1D3F867
:108210003431033B042B02D8264AD35C3BB14FF0E8
:108220001023D3F808224FF08043C3F858254FF0AD
:108230001023D3F80022002A03DBD3F80432002BEA
:1082400022DA1D4901234FF01020C1F8043515240E
:10825000FFF7E6FEC0F80042FFF7E2FEC0F8044276
:10826000FFF7DEFE0023C1F80435FFF7D9FEBFF3A8
:108270004F8F0A49114BCA6802F4E0621343CB6086
:10828000BFF34F8F00BFFDE70D4B0E4A1A6010BDC4
:108290000030014000C007400DF0ADBA00ED00E035
:1082A00000500040CCD6020000C00040D1D60200F1
:1082B00000100040D6D6020000E001400400FA059C
:1082C0000C2B00200090D003054A4FF0A043105C17
:1082D000D3F8043523FA00F0C04300F001007047E2
:1082E000E4D60200044B1A5C012393404FF0A042F5
:1082F000C2F80C35704700BFE4D60200044B1A5C8C
:10830000012393404FF0A042C2F80835704700BFE8
:10831000E4D6020008B50020FFF7F0FF0120FFF7C8
:10832000EDFF0220FFF7EAFFBDE808400320FFF75A
:10833000E5BF08B50020FFF7D5FF0120FFF7D2FF0A
:108340000220FFF7CFFFBDE808400320FFF7CABFB8
:10835000074A4FF0A041105CD1F804350122824059
:1083600022EA03001340C1F80805C1F80C35704734
:10837000E4D60200014B185C704700BFE0D6020053
:1083800038B5074C051E04F1080318BF1C462368C6
:108390002BB11A6822605B6828469847F7E738BD1A
:1083A0004032002020B9054B01225A70FFF7E8BF88
:1083B000012802D1014A9070F8E770473832002056
:1083C00020B9034B01225A70FFF7DABF704700BF94
:1083D0003832002038B50E4C2378B3B90D486360AD
:1083E000A3602361E36000F0E7F8054603F0A6FD13
:1083F00008B900F0EDF801232370074BD3F80034DF
:108400000BB10123A370284638BD8525F5E700BFD1
:1084100038320020A58302000000014037B50D4C22
:1084200000230DF107008DF80730FEF7DFFFE3684A
:10843000013BE360E36833B9074BD3F8005415B947
:1084400000F0D8F8A5709DF80700FEF7F3FF03B021
:1084500030BD00BF3832002000000140012813B5B4
:108460000CD0032820D038B9134B0122C3F8802048
:10847000BFF34F8FBFF36F8F02B010BD0F4C0023BF
:108480000DF107008DF80730FEF7B0FF23780BB928
:10849000FFF7A0FFE3689DF807000133E3600123C5
:1084A000A370FEF7C7FFE7E700F092F802B0BDE85F
:1084B0001040FFF7B3BF00BF00E100E038320020FA
:1084C0001FB503788DF800304368019383688DF8F9
:1084D0000830C368054A0393054B684653F82130BA
:1084E00052F82110984705B05DF804FB4C3200208B
:1084F000503200201FB503788DF800304368019397
:1085000083688DF80830C368054A0393054B6846B5
:1085100053F8213052F82110984705B05DF804FB5C
:108520004C32002050320020F0B5194B90F800C0BA
:1085300091F81DE043F82C20164B16460A6943F8C3
:108540002C20154B03F80CE00C4607460FCC89B0E5
:108550006D460FC594E80F0085E80F00CDF810C0F8
:10856000BEF1000F09D0002E0C4A694608BF324602
:10857000381D00F07FFC09B0F0BD002E084A6946A6
:1085800008BF324607F10C0000F046FAF3E700BFDF
:10859000503200204C32002054320020C1840200AE
:1085A000F584020000F18040002382B0036003687C
:1085B0000193019B02B07047044A137923B901214A
:1085C000106091801846704785207047583200200F
:1085D000074B1A68D20704D4C02283F80023012273
:1085E0001A604FF080430122C3F81825704700BF7E
:1085F00000E100E04FF0804208B50223C2F80833E2
:108600004FF48270FFF7CEFF0123D360D2F8183405
:10861000DB03FBD408BD00004FF0804110B5D1F85A
:10862000003163B14FF48070FFF7BCFF0D4B5879F8
:108630000122C1F8082310B95A711B6898474FF0FE
:108640008042D2F8043163B14FF48270FFF7AAFF81
:108650000223C2F80833034BBDE810401B68012019
:10866000184710BD5832002000F1804000F5C0408E
:10867000002382B0036003680193019B02B070473E
:10868000800000F1A040D0F8002722F44032C0F86A
:108690000027D0F8003743EA0141C0F800177047BF
:1086A0002DE9F74F00244E4D01944FF480720121C3
:1086B00002F1804303F5C04390B21B68012B06D141
:1086C000D5F804330B4202D0FFF7CEFF0C4304323F
:1086D000B2F5907F4FEA4101EAD1414BD3F87C31AA
:1086E000012B0CD14FF4BE70FFF7BEFF4FF0A0433B
:1086F00044F00044D3F820250192C3F82025E3B2CA
:10870000D3B1384F00250126344210D0AB0003F11D
:10871000804303F5C043D3F81005D3F8101557F87C
:10872000253023B1C1F30141C0F30420984701353E
:10873000082D4FEA4606E7D1002C48DA294D4FF0C4
:10874000A048294E4FF00009012716F9013B5A1C99
:1087500031D0C3F3C20208326A44DCB212F8042CEE
:1087600003F03F0A03F0070307FA03F31A4222D08B
:108770000AF5E073504658F82330C3F3014BBBF1C0
:10878000020F0CBF03210221FFF77AFF07FA0AF359
:10879000C8F8203505EB0A0393F9303055F823303B
:1087A0004BB1A109032904D0BBF1020F12D1012959
:1087B00001D15046984709F10109B9F1040FC4D11C
:1087C000D8F820350193C8F82035002BB9D103B073
:1087D000BDE8F08FBBF1030FEDD10229E8E700BF40
:1087E0000060004060320020B0320020014B1B6866
:1087F000184700BFBC3200200E4B984237B50C46DC
:1088000002D0002003B030BD00230DF107008DF829
:108810000730FEF7EBFD084B1D7915B901221C60EE
:108820001A719DF80700FEF705FE002DE9D0112012
:10883000E8E700BF00200040BC3200200023435086
:1088400082B043580193019B02B070470A4610B5AD
:108850004FF48E71FFF7F2FF136A9168C95C136AD7
:1088600001331362C0F81C1510BD024608B500683C
:108870004FF49271FFF7E2FF10684FF48471FFF735
:10888000DDFF136801221A6008BD8B690A4610B526
:108890004FF4847123B9FFF7D1FFD0F8183510BD1C
:1088A000FFF7CCFF536AD168D0F81805C854536A53
:1088B00001335362F3E700001FB501238DF8003048
:1088C000044BCDE90110D3E900126846904705B08A
:1088D0005DF804FBC432002030B54D4DD5F80433AB
:1088E0009A0585B051D5D5F82431002B4DD04FF4E1
:1088F00092712846FFF7A2FF4FF40173C5F80833C1
:10890000444B93F829200AB901226A6040490222A7
:108910008DF80020D1F88024C1F8802403929A6950
:108920000292DA6801920022C3E906226846D3E97E
:10893000001290473648D0F81C315BB1354A516976
:10894000136A99424DD992F82830002B49D111462B
:10895000FFF77CFF2E48D0F84431002B56D04FF45F
:10896000A271FFF76BFF2B4B93F829200AB101226C
:1089700002609A69002A49D0586AD96800229A612F
:1089800005B0BDE83040FFF797BFD5F804335B076B
:10899000D0D5D5F80831002BCCD01E4C1C48214630
:1089A000FFF773FF636AA2699A42C3D1E369E16882
:1089B0004BB1A3612369E3600023606AE3616362F2
:1089C000FFF77AFFB6E794F829300BB901236B6003
:1089D0000F4B4FF40172C3F808230023606AA361B0
:1089E000EEE70B484FF48E71FFF728FF5369002B19
:1089F000B0D051690291002391688DF80030019147
:108A000053616846D2E900139847A3E705B030BD2B
:108A100000200040C43200202DE9F843534D90F867
:108A200004802C2303FB0853064693F82A300C4697
:108A30009146002B40F096804D490068FFF7DCFE20
:108A40000746002840F0908022683068511C0BD007
:108A50004FF0A04101239340C1F8083502F5E073BF
:108A60004FF0030C41F823C061684B1C1FBF01F598
:108A7000E0734FF0A04C4FF0000E4CF823E0A369D8
:108A8000C0F8243594F814C0637DBCF1010F4CEAA2
:108A90000303C0F86C35C0F81415C0F80C251DD1BF
:108AA000A268531C1FBF02F5E0734FF0A0414FF0C6
:108AB000000C41F823C0E368591C0BD04FF0A04CC8
:108AC00001219940CCF8081503F5E0714FF0030E31
:108AD0004CF821E0C0F80835C0F810252C2202FB24
:108AE00008F2AB18C3F804902369AB50B9F1000F3A
:108AF00020D04FF48E71247FFFF7A0FE4FF4A271B7
:108B00003068FFF79BFE32681A4BC2F80433130B30
:108B100042F307326101002AC9B21EDB16488418ED
:108B200084F800130121520903F01F0301FA03F333
:108B300040F8223033680422C3F800252C2303FBBD
:108B400008530022C3E9062283F829205A61012232
:108B500083F82A203846BDE8F883084A03F00F035B
:108B6000D154E7E70827F5E71127F3E7C4320020DF
:108B7000D98802008000020000E100E014ED00E06E
:108B80000279044B2C2101FB02335869003818BFCD
:108B900001207047C43200202DE9F84F064690F8B6
:108BA000048089469246FFF7EBFF044600283CD13B
:108BB000204F2C2508FB057B4FF48E71CBF814A0B9
:108BC000CBF80890CBF820008BF828003068FFF72E
:108BD00035FE3068012383605946FFF737FEDBF826
:108BE00004305D461BBB3068DBF814402B6A9C42A6
:108BF00011D83368D3F81C21002AFBD00122DA6097
:108C000000202C2303FB087700237B61BDE8F88F4D
:108C100095F828303BB9D0F81C31002BF8D05946D4
:108C2000FFF714FEE2E70F20EBE71120EEE7204606
:108C3000ECE700BFC43200202DE9F0473A4D077938
:108C40002C2303FB075306465C6824B103684FF4EA
:108C50000170C3F808032C2303FB0753986950B134
:108C6000D869002841D024B133684FF40172C3F8A9
:108C70000423112436E09A61D9605862D8612C230C
:108C800003FB075393F829301BB910B93046FFF79F
:108C9000ECFD4FF02C0808FB075A3068DAF8043076
:108CA000002B37D14FF4A271D046FFF7C7FD3068D3
:108CB000D0F82491D0F80831D0F84441CBB914B998
:108CC000B9F1000FF3D02C2303FB07550023AB6150
:108CD000B9F1000F24D12CBB95F82910336801227B
:108CE000B1B11A602046BDE8F0871961DA61012050
:108CF000C5E7B9F1000FE6D1002CE4D14146FFF7FA
:108D0000C4FDDAF82430DAF818209A42CFD8DAE72E
:108D10005A60E7E74FF40173C0F804330024E1E739
:108D20000324DFE70F24DDE7C43200200023435093
:108D300082B043580193019B02B070471FB50123D5
:108D40008DF80030044BCDE90110D3E900126846DC
:108D5000904705B05DF804FBF03200207FB5434A30
:108D6000D2F82461002E60D010464FF49271FFF7C4
:108D7000DDFF02238DF80030D2F88034C2F8803451
:108D80000393D2F83C350293394BDA680192002202
:108D9000C3E906226846D3E9001290473348D0F869
:108DA000443173B14FF4A271FFF7C0FF304B9A69A1
:108DB0003AB10022C3E90622D968D0F83C05FFF792
:108DC000BDFF2A48D0F82031ABB14FF49071FFF7C6
:108DD000ADFF0123C360264B5A6962B1D0F84C1530
:108DE0000291002299688DF8002001915A6168462D
:108DF000D3E9001290471D48D0F858319BB14FF489
:108E0000AC71FFF793FF1A4B5A6962B1D0F84C1559
:108E10000291002299688DF8002001915A616846FC
:108E2000D3E90012904704B070BDD2F81031002B86
:108E3000B4D04FF488711046FFF778FF0C4BD2F88E
:108E40003C0599698842A9D1DC69D96864B1D2F836
:108E5000005225F02005C2F800521A699C61DA60C0
:108E6000DE61FFF76BFF99E79C61FAE700200040A5
:108E7000F03200202DE9F8435A4E90F80480242364
:108E800003FB0863044693F820300D469146002BFF
:108E900040F0A38054490068FFF7AEFC0746002865
:108EA00040F09D802A682068511C0BD04FF0A041F3
:108EB00001239340C1F8083502F5E0734FF0030C2D
:108EC00041F823C069684B1C1FBF01F5E0734FF0E8
:108ED000A04C4FF0000E4CF823E0AB69C0F82435ED
:108EE00095F814C06B7DBCF1010F4CEA0303C0F888
:108EF0006C35C0F80C25C0F814151DD1AA68531C98
:108F00001FBF02F5E0734FF0A0414FF0000C41F895
:108F100023C0EB68591C0BD04FF0A04C01219940A5
:108F2000CCF8081503F5E0714FF0030E4CF821E082
:108F3000C0F80835C0F81025242202FB08F2B31847
:108F4000C3F804902B69B350B9F1000F2FD04FF440
:108F500088712A7FFFF7EAFE20684FF49071FFF7CF
:108F6000E5FE20684FF49271FFF7E0FE20684FF4B1
:108F7000A271FFF7DBFE4FF4AC712068FFF7D6FE5D
:108F800023681A49C3F80413190B43F3073352013A
:108F9000002BD2B21CDB1648C51885F8002301222D
:108FA0005B0901F01F0102FA01F140F82310236868
:108FB0000822C3F80025242303FB08660023C6E922
:108FC00006337361012386F820303846BDE8F88304
:108FD000084B01F00F015A54E9E70827F5E711277C
:108FE000F3E700BFF03200205D8D02001003420065
:108FF00000E100E014ED00E00279044B242101FBC4
:1090000002335869003818BF01207047F032002041
:1090100001F06043B3F1005F2DE9F0470646884652
:1090200092463BD190F80490FFF7E6FF04460028F3
:1090300036D11D4F3068242505FB09754FF490711A
:10904000C5F814A0C5F80880FFF770FE4FF4AC71A6
:109050003068FFF76BFE33686A69A968C3F8441586
:10906000C3F8482501229A606A68DAB9D3F820214A
:10907000D3F858011AB90028F8D00F2007E00028CB
:10908000FBD10122DA60D3F85821002AFBD0242337
:1090900003FB097700237B61BDE8F0871020FBE725
:1090A0001120F9E72046F7E7F0320020F8B501F08B
:1090B0006043B3F1005F04460F465ED10379304D43
:1090C000242101FB0351496821B100684FF4047663
:1090D000C0F80863242000FB03539E6956B1D86989
:1090E000002839D021B123684FF40472C3F8042357
:1090F000112030E09A61DF60DE6120684FF48871F2
:10910000FFF714FE20684FF4A271FFF70FFE2368EB
:10911000C3F83475C3F8382516BB01221A602479C8
:10912000242202FB045252680ABBD3F81011D3F870
:109130004421D3F82401114302D10028F5D00A4676
:10914000242303FB04550023984218BF03209A42AE
:10915000AB6118BF0F20F8BD1F61DA610126CCE7B3
:10916000D3F8002242F02002C3F80022D7E74FF4E0
:109170000472C3F804230020EDE71020EBE700BFE2
:10918000F03200202DE9F74F4FF00009154D164F32
:1091900006464FF0040AC8465FFA89FB01240DF128
:1091A000070004FA0BF48DF80780FEF71FF92C4234
:1091B00008D03B6814EA030201BF23433B6086F8F2
:1091C00000B092469DF80700FEF734F9BAF1000F9F
:1091D00003D0A54309F10109DED1504603B0BDE833
:1091E000F08F00BFFFFF01001433002010B5A1B1C4
:1091F0009AB101238340C3F3100484B10A4C24685C
:1092000023420ED0C00000F1804000F5F830C0F8D5
:109210001015C0F81425002010BD0E20FCE7072013
:10922000FAE70820F8E700BF14330020012202FA11
:1092300000F3580C400440B91BB1064A12681342AF
:1092400005D0054AC2F8043570470720704708204A
:10925000704700BF1433002000F0014000F180404F
:1092600000F5E040002382B0036003680193019B96
:1092700002B07047F0B5524B524CD3F8043185B070
:10928000002B3DD094F82E204FF48270FFF7E6FFBC
:109290002AB394F82F3013BB494AD2F80031002B7F
:1092A00032D04FF48070FFF7D9FF638B94F82D0014
:1092B000834250D921891B1A9BB289B26383CB1A8E
:1092C000616801EB4303C2F82C36C2F830064FF454
:1092D0008270FFF7C3FF3A4B01225A6014E06368C3
:1092E00002932389ADF80C30E36800218DF8041057
:1092F00033BB2374236801A89847002384F82F30D8
:1093000094F82E30002BC7D12D4BD3F810315BB120
:109310004FF48870FFF7A2FF0023237402238DF817
:10932000043001A823689847254BD3F81431EBB1DA
:109330004FF48A70FFF792FF0023237405B0F0BD4D
:10934000208B608363602081E160002AD2D11C4BB6
:1093500001221A60CEE7BAD1E368012184F82F1008
:1093600013B100216183AEE76383B0E766694FF014
:1093700000470125002EE1D0B6FA86F227FA02F363
:109380004632920026EA030602F1804303F5E043E9
:109390001B68002BEED01046A2F58C72FFF75EFF23
:1093A000D30882F00402C2F380028DF808308DF8F1
:1093B000045023688DF8092001A89847DAE700BF18
:1093C000007000401833002038B5204A92F82C3045
:1093D0000446002B37D111601D490078C1F8F00513
:1093E0006078C1F8F4050125E078137482F82D3017
:1093F000536182F82F306FF0004382F82E0082F81C
:109400002C504FF48270C1F80833FFF727FF4FF458
:109410008070FFF723FF4FF48A70FFF71FFFA378D8
:109420000C485B01DBB280F8073380230360022322
:10943000C1F8043392F82E300BB1C1F80453C1F8CF
:109440000055002038BD0820FCE700BF183300207D
:109450000070004000E100E070B52A4B1A7C02F079
:10946000FF05002A4BD10A79012A9CBF264CC4F87B
:10947000005500F10C0503EB4504247924B993F859
:109480002D40013483F82D4003EB4503CC790D7A50
:109490008E781C715D714B7836021B0106F4E06614
:1094A00003F0300333430E7806F003063343CE78DF
:1094B000360306F480563343160406F4E02633439D
:1094C0004E798979360506F480160906334301F092
:1094D00080710B430C4901EB0016000100F1804044
:1094E00000F5E040012AC6F81835C0F81455C0F858
:1094F000104502D80123C1F80035002000E01120FA
:1095000070BD00BF1833002000700040054B93F879
:109510002E30002B14BF0020042000F1804000F505
:10952000E04070471833002070B5264A264B0546A8
:109530001220C2F808031C7C022C03D1C2F80403D9
:10954000112070BD187C01281CD1D86818B10223E5
:10955000C2F80433F4E7DD60198393F82E305BB969
:10956000D2F80031002BFBD04FF48070FFF776FE6D
:10957000C2F82C56C2F83016124B0222C3F804234C
:109580000020DEE7022093F82E40C2F804030126F3
:1095900000201E745D601981D8603CB1598393F836
:1095A0002D30C2F82C56C2F83036CAE7C2F82C5615
:1095B0004FF48070C2F83016FFF750FE1660204658
:1095C000BFE700BF0070004018330020F0B51C4F0B
:1095D0008BB207EB001443EA0243C4F81C35194B65
:1095E00040005C6900F1010C4FF0004611F5006F7E
:1095F00026FA0CF64FF0800505FA00F50BBFB443D0
:1096000034435C615C610CBFC7F80853C7F804536E
:109610004FF0004140245D69844021FA00F040F29F
:10962000FF718A42064A0BBF25EA000028435861B1
:1096300058610CBFC2F80843C2F80443F0BD00BF34
:10964000007000401833002010B5124B1A7CF2B99C
:1096500000F10C0103EB4102127922B193F82D20A5
:10966000013A83F82D2003EB410300249C80030181
:1096700003F1804303F5E0430749C3F8144540F282
:10968000FF72C3F81045FFF7A1FF204610BD11205F
:10969000FCE700BF1833002000F8FFFF38B5144B7B
:1096A0006FF00042C3F80823124A8021C2F88010EC
:1096B000BFF34F8FBFF36F8F01229A6042F2107297
:1096C000D3F8141109B9013AFAD10B4D0024C3F8AB
:1096D00000452C7405EB44031B7F13B1E0B2FFF788
:1096E000B3FF0134082CF5D1002385F82C3038BDA8
:1096F0000070004000E100E018330020034B1878B0
:1097000010B901221A707047852070474833002035
:109710002DE9F347002406460F46904600F5A07554
:109720004FF48039A2462B688BB1D6F8043309FA7E
:1097300004F21A420BD0C5F800A02B680193A000D8
:10974000019B00F5A07398B2D7E900319847013426
:10975000444505F10405E6D102B0BDE8F0870000FC
:10976000F7B506792F4D0C237343EF183C7A002C84
:1097700055D1EA504B687B60477903682246A4467E
:10978000D4B2A7423CD8CA7843F307345201002C24
:10979000C3F30733D2B23DDB234F07EB040C8CF845
:1097A00000230122640903F01F0302FA03F347F8C0
:1097B000243003684A78D3F8040502F0030220F04D
:1097C00003000243C3F80425D3F808058A7820F083
:1097D000030002F003020243C3F80825D3F8100582
:1097E0000A7820F00F0102F00F020A43C3F8102597
:1097F0000C2303FB065501232B72002003B0F0BDA0
:10980000940004F5A074013243F804C01C5901947B
:10981000019CB5E7054C03F00F03E254C9E70820AB
:10982000ECE700BF4C33002000E100E014ED00E065
:10983000036801221A600279034B0C2101FB0233F9
:1098400002221A72704700BF4C33002037B54FF424
:10985000803400688C407BB18B0003F5A073002539
:10986000C550C3580193019BC0F8044301F5A8718A
:1098700040F8212003B030BDC0F80843F6E770B4CB
:10988000046840F20116D4F800528E4025EA06051D
:10989000C4F80052D4F800522B43C4F800329DF8AB
:1098A0000C3070BCFFF7D2BF024903480422FFF717
:1098B0002FBF00BF4C330020008000400249034806
:1098C0000422FFF725BF00BF58330020009000405E
:1098D000024903480422FFF71BBF00BF6433002086
:1098E00000A00040024903480622FFF711BF00BF55
:1098F0007033002000A00140024903480622FFF710
:1099000007BF00BF7C33002000B0014008B5094B01
:109910001B7853B10020FEF7F1FC0120FEF7EEFCAE
:10992000BDE808400320FEF7E9BCBDE80840FEF7AB
:10993000F1BC00BF88330020F8B57A4C2378054687
:109940001BB100232370FFF7E1FF172D00F2878082
:10995000DFE805F00C1717425364757F878C878CFE
:10996000949999999999C3C8D0D8E3E3FFF7CEFFAA
:109970006D48FDF723FB6D4B002204461A7020460C
:10998000F8BD0020FEF7A0FCF0B10020FEF7B6FC09
:10999000022D0CBF4FF4E1644FF47A64634B1D70E9
:1099A00000254FF400464FF47A7029464FF4FA62CE
:1099B0000023E4FB060102F043FC2A460146BDE811
:1099C000F8405948FDF7CCBAFEF78CFC022D0CBFCD
:1099D000C8244FF4C874E1E70020FEF775FC40B1DD
:1099E0000020FEF78BFC4FF44874504B03221A7092
:1099F000D6E7FEF777FCC824F7E70020FEF764FC03
:109A000038B10020FEF77AFC4FF47A64474B042209
:109A1000EDE7FEF767FC4FF4C874F7E70020FEF7A8
:109A200053FC48B10020FEF769FC404B05221A7038
:109A300040F6CD410022C2E7FEF754FCF5E70020D6
:109A4000FEF786FC394B06221A70002240F266614E
:109A5000B5E70020FEF746FC344B07221A700024BD
:109A60008DE701202070FEF773FCEEE701202070E7
:109A7000FEF76EFC00224FF40051A0E7FEF759FC00
:109A80002A4B0C22EAE72A482A4EFDF797FAD5F12D
:109A9000110504461CD0D8B9012D13D0C820454368
:109AA00021464FF400474FF47A704FF4FA620023D6
:109AB000C5FB070102F0C4FB224601461C48FDF726
:109AC0004FFA04460220FEF70DFC0123337056E7DF
:109AD0000220FEF713FC0023F8E7FFF717FF134BF4
:109AE0001222BBE7FFF712FF0020FEF7FBFB0F4B34
:109AF0001322B3E7FFF70AFF0120FEF7F3FB0B4B3E
:109B00001422ABE7FFF702FF0020FEF7EBFB01207A
:109B1000FEF7E8FB054B1522A0E7FEF70AFC034B16
:109B20001D709CE79C330020302B00209D330020CB
:109B3000102B00208833002010B5002914BF032407
:109B40000024FEF717FC800000F1A040D0F80027A9
:109B500022F44032C0F80027D0F8003743EA04432B
:109B6000C0F80037002010BD044B1B6813F0010340
:109B700001D0FFF7E1BE1846704700BF98330020C0
:109B8000032811D8012A0AD101290FD100F10E02B0
:109B9000D2B20D4B00EB40001A540020704701294F
:109BA000F7D0022904D049B1072070470022F8E716
:109BB000054B00EB400018444270EEE7024B00EB0F
:109BC000400018448270E8E789330020032802D857
:109BD0000121FFF7B1BF0620704708B5012202211D
:109BE0000020FFF7CDFF08B1072810D1072202217E
:109BF0000120FFF7C5FF08B1072808D100210A227C
:109C00000846FFF7BDFF10B1072808BF002008BDB8
:109C10000388102B10B502D0112B1ED010BD1A4C8A
:109C20002168B1B901220846FFF7AAFF08B1072849
:109C300024D1072202210120FFF7A2FF08B1072843
:109C40001CD1042202210020FFF79AFF08B1072847
:109C500014D1236801332360E0E70B4A1368013B0A
:109C60001360002BDAD1FFF7B8FF0028D6D0074BDE
:109C70001B68002BD2D0BDE810401847034B1B686F
:109C8000002BE6D09847E4E7A4330020A03300205F
:109C900008B50020FFF79AFF08B1062806D1012079
:109CA000FFF794FF10B1062808BF002008BD76DF3B
:109CB00070477ADF70477CDF70477FDF70478FDF48
:109CC0007047B1DF704733DF70477047FCF7F2BF72
:109CD00008B50020FFF748FF08B1FCF7EBFFFFF7DE
:109CE000D7FF08B1FCF7E6FFFFF7EDFF18B1BDE8BD
:109CF0000840FCF7DFBF08BD0388212B13B50446DD
:109D00003FD007D8112B2DD0132B48D0102B0CD0BF
:109D100002B010BD522B4AD0562B01D03B2BF7D1AD
:109D2000A0881321FFF7C3FF15E0254B25482649DE
:109D3000C01AC008000440F00300FCF749FE0720E9
:109D4000FFF712FF08B1FCF7B5FF204BA1882048B0
:109D5000198001F0ABFE0028DAD002B0BDE8104057
:109D6000FCF7A8BF164B17481A49C01AC0080004D0
:109D700040F00300FCF72CFE144B4FF6FF721A80E4
:109D8000C6E7002380888DF8043001A98DF80530DE
:109D9000FFF795FF0028BBD0FCF78CFFB8E70B4816
:109DA00000231A4685210088FFF787FFD3E707487D
:109DB00000231A4619460088FFF783FFCBE700BF50
:109DC00054CF020094CF02001AD70200562B002075
:109DD000D439002024D7020020B1034B800143F086
:109DE00001031847704700BF00D8020008B5037888
:109DF0004BB9054B3B211888FFF759FF18B1BDE857
:109E00000840FCF757BF08BD562B002008B548B1E5
:109E100003280BD10220FFF7A7FE38B1BDE80840A8
:109E2000FCF748BFBDE80840FFF752BF08BD00007F
:109E3000F7B50378012B33D0022B31D073BB1B4C09
:109E40001B4D20782844FDF793FA23780133DBB2C9
:109E50001D44237015F8012C0A2A05D00D2A03D0C1
:109E6000144A12889A4219D8012B15D9124D104E56
:109E7000124F2378ADF806300DF106022B883146DB
:109E8000384601F08BFF082806D01328F1D00528AA
:109E900002D008B1FCF70EFF0023237003B0F0BD21
:109EA000406803B0BDE8F040FCF704BF9C340020DC
:109EB000A8330020542B0020562B0020582B0020C4
:109EC00070B53221CCB005464068FFF72DFB08B1D4
:109ED000FCF7F0FE114E00246B6831461A5F01A8B2
:109EE00002F0B2FB0234642CADF80200F4D10C4B4A
:109EF0000C481B880DF1020201A901F04FFF052853
:109F0000034604D033F0080301D0FCF7D3FE064A21
:109F10001368013313604CB070BD00BF31D702002D
:109F2000562B0020582B0020A034002003780BB9BA
:109F3000FFF7C6BF704700000D4B4A881B889A4246
:109F400014D10A8840F677239A420FD18B88094AA8
:109F500009480A49033B9BB21380094A801AC0088A
:109F600000041A4640F00300FCF73FBD704700BFF5
:109F7000562B0020542B002094CF020036D702002D
:109F800054CF0200FCF796BE08B50849084801F016
:109F90006DFC08B1FCF78EFE0548F72101F07AFC54
:109FA00018B1BDE80840FCF785BE08BD399F020026
:109FB000A039002030B50E4D0FCD8BB004AC0FC4CE
:109FC00095E803000B4B0C4A00934FF4807384E830
:109FD0000300CDE902230193084A0723694604A838
:109FE000FDF76EF908B1FCF765FE0BB030BD00BFA0
:109FF000B0D70200E0390020E03A0020319E020094
:10A000001FB50020FFF720FB0120FFF71DFB0220FA
:10A01000FFF71AFB0320FFF717FB0420FFF714FBE1
:10A02000FFF73CFB06228DF80220174A00239069B7
:10A03000D1698DF801308DF8033002238DF800309E
:10A0400001AB03C392F8202010491A706846FFF74D
:10A05000BBF908B1FCF72EFE01A90420FFF7FCF9BB
:10A0600008B1FCF727FE0A483221FFF75DFA08B174
:10A07000FCF720FE07483221FFF756FA08B1FCF73B
:10A0800019FE05B05DF804FBB0D702002D9F020059
:10A09000D83800203C3900201FB50020FFF7D4FA43
:10A0A0000120FFF7D1FA0220FFF7CEFA0320FFF7D5
:10A0B000CBFA0420FFF7C8FAFFF7F0FA06228DF872
:10A0C00002201A4A0023D2F82100D2F825108DF878
:10A0D00001308DF8033001AB03C392F829201A70C8
:10A0E0000224012312498DF8004068468DF806408D
:10A0F0008DF80730FFF768F908B1FCF7DBFD01A91F
:10A100000320FFF7A9F908B1FCF7D4FD0948322173
:10A11000FFF70AFA08B1FCF7CDFD07483221FFF737
:10A1200003FA08B1FCF7C6FD04B010BDB0D70200B9
:10A130002D9F0200D83800203C3900201FB5002098
:10A14000FFF782FA0120FFF77FFA0220FFF77CFA7F
:10A150000320FFF779FA0420FFF776FAFFF79EFA5B
:10A1600006228DF802201A4A0023D2F82A00D2F8DB
:10A170002E108DF801308DF8033001AB03C392F837
:10A1800032201A700224012312498DF800406846DB
:10A190008DF806408DF80730FFF716F908B1FCF787
:10A1A00089FD01A90220FFF757F908B1FCF782FDEC
:10A1B00009483221FFF7B8F908B1FCF77BFD0748E1
:10A1C0003221FFF7B1F908B1FCF774FD04B010BDFE
:10A1D000B0D702002D9F0200D83800203C39002063
:10A1E0001FB50020FFF730FA0120FFF72DFA0220FB
:10A1F000FFF72AFA0320FFF727FA0420FFF724FAD3
:10A20000FFF74CFA06228DF802201A4A0023D2F8F2
:10A210003300D2F837108DF801308DF8033001ABE0
:10A2200003C392F83B201A700224012312498DF8CF
:10A23000004068468DF806408DF80730FFF7C4F8F7
:10A2400008B1FCF737FD01A90120FFF705F908B1B6
:10A25000FCF730FD09483221FFF766F908B1FCF739
:10A2600029FD07483221FFF75FF908B1FCF722FD0D
:10A2700004B010BDB0D702002D9F0200D8380020D6
:10A280003C3900201FB50020FFF7DEF90120FFF761
:10A29000DBF90220FFF7D8F90320FFF7D5F90420F6
:10A2A000FFF7D2F9FFF7FAF906228DF80220194AD2
:10A2B0000023D06B116C8DF801308DF8033001ABA9
:10A2C00003C392F844201A700224012312498DF826
:10A2D000004068468DF806408DF80730FFF774F8A7
:10A2E00008B1FCF7E7FC01A90020FFF7B5F808B1B9
:10A2F000FCF7E0FC09483221FFF716F908B1FCF73A
:10A30000D9FC07483221FFF70FF908B1FCF7D2FC5E
:10A3100004B010BDB0D702002D9F0200D838002035
:10A320003C39002030B589B00D4614460D4902462F
:10A3300002A802F089F92A460A4904AD03A802F0EE
:10A3400083F922460749284602F07EF9064900951E
:10A3500003AB02AA05A802F077F905A802F0FAF902
:10A3600009B030BD52D7020057D70200F8B50446F5
:10A370000F461646D0E9011200681D46FFF7D2FFCE
:10A380003860E368336023692B60D4E905321344F5
:10A39000E2691344069A1360F8BD2DE9F84F4FF0B7
:10A3A000A0451E464023C5F80C3506EBD679802320
:10A3B0001446C5F80C354FEA69094FF0010B4143CB
:10A3C0000746642091FBF0F84FEA480A9AFBF6FA38
:10A3D000D3451FDD4023C5F80C358023C5F80C3567
:10A3E0004FF0010A4FF0A0457C43642294FBF2F445
:10A3F000630093FBF6F6B2451DDD4023C5F80C352E
:10A40000A7EB08008023C5F80C35001BBDE8F84F0A
:10A41000FFF7E2BCD5F80435DA4302F0400203F05E
:10A420004003C5F808254846C5F80C35FFF7D4FCAD
:10A430000BF1010BCCE7D5F80425D34303F08003DF
:10A4400002F08002C5F808354846C5F80C25FFF72C
:10A45000C3FC0AF1010ACEE730B5037897B083B99F
:10A4600003691A78082A08D8082A0AD8DFE802F00F
:10A47000360B14091D22272C3100212A2ED04A2AFE
:10A4800032D017B030BD4FF0A0434022C3F80C25A6
:10A490008022C3F80825F4E74FF0A0434022C3F818
:10A4A00008258022C3F80C25EBE717B0BDE8304043
:10A4B000FFF7E8BE17B0BDE83040FFF791BE17B018
:10A4C000BDE83040FFF73ABE17B0BDE83040FFF7B7
:10A4D000E3BD17B0BDE83040FFF792BD4FF0A04399
:10A4E0004022C3F80C25DCE707AA03F10801154652
:10A4F00013F8010F42F8040B8B42F9D1642406AB28
:10A50000009304AA05AB03A92846FFF72FFF013CDF
:10A51000DDE90523DDE90301FFF73FFF14F0FF0448
:10A52000EDD1AEE71FB5FFF7E9F808B1FCF7C2FBC4
:10A53000184A19480023CDE9022302A9174AFFF758
:10A540000FF908B1FCF7B6FB154BD3F81025002125
:10A550004FF49650D2B220FA02F2009101230E4835
:10A56000FFF78DF90C48FFF763F9FEF7CFFF0446BC
:10A570000C48FEF707FE08B1FCF79CFB094B0A49A3
:10A5800018782246FEF732FE08B1FCF793FB04B0C0
:10A5900010BD00BF0900000608D80200CB9C0200D5
:10A5A00000A00140D039002040A1014008B5054B72
:10A5B0001878FEF73BFE18B1BDE80840FCF77ABBFF
:10A5C00008BD00BFD039002030B589B006238DF812
:10A5D0000630234BD86B196C02AA03C293F84410BF
:10A5E0001170D3F83300D3F8371093F83B3005AA35
:10A5F00003C200240225137005A9012320468DF80B
:10A6000005408DF807408DF804508DF80A508DF8FC
:10A610000B308DF816508DF81730FEF71DFF08B17E
:10A62000FCF748FB0F4901A8FEF7CEFE08B1FCF786
:10A6300041FB02A90020FEF70FFF08B1FCF73AFB2F
:10A6400009483221FEF770FF08B1FCF733FB0748D9
:10A650003221FEF769FF08B1FCF72CFB09B030BDD1
:10A66000B0D702002D9F0200D83800203C390020CE
:10A6700000B5ADB0FFF79EFC4FF480410020FCF721
:10A6800009F808B1FCF716FBFBF742FFFCF724FCC6
:10A6900008B1FCF70FFB4FF0A0430322C3F81827C3
:10A6A000C3F81C27FDF7E6FB08B1FCF703FB01F03C
:10A6B00007FC08B1FCF7FEFA002301A90120019371
:10A6C00001F090FC08B1FCF7F5FA01A801F04AFD91
:10A6D00008B1FCF7EFFA112345498DF80030142238
:10A6E0006846FFF7E8FA08B1FCF7E4FA0023ADF892
:10A6F00008301023ADF804303C23ADF8063001A833
:10A700004FF4C873ADF80A30FFF7D3FA08B1FCF77D
:10A71000D1FAFFF739FC374B3748019301A901F013
:10A72000B3F908B1FCF7C6FA344B354800936946D3
:10A7300001F0BAFA08B1FCF7BDFAAC22002101A879
:10A7400002F043F802238DF8043005238DF807301A
:10A7500001234021ADF850308DF8803044F2506331
:10A76000CDE92313274A284B2848159201A92A939B
:10A7700000F09FFB08B1FCF79DFA2448012100F08E
:10A7800095FB1422002101A802F01FF84FF4F023DA
:10A790004FF4A032CDE9022303238DF810301C4B77
:10A7A000069301A81B4B079300F040FE08B1FCF78D
:10A7B00081FAFFF7B7FEFFF707FFFFF7F7FE16482E
:10A7C00001F028FF154B16481649C01AC0080004AE
:10A7D00040F00300FCF7FCF80C48032100F0E6FB16
:10A7E00008B1FCF767FAFBF7A7FFFDF759FBFAE79B
:10A7F0005ED70200CD9C0200D439002059A402008B
:10A80000582B0020502B00200D9E0200A434002065
:10A81000ED9D0200859F020073D7020054CF020015
:10A8200094CF020084D702000369C26893429CBFA0
:10A8300080681B18013B981A70472DE9F843D0E94E
:10A8400002940546A9EB04084068904520440F4651
:10A85000144404D901F090FFEC60BDE8F88342464F
:10A86000A4EB090401F088FF6868224607EB0801A1
:10A87000F0E72DE9F843C5680646894617464FF0CC
:10A8800000083469B3687068A54228BFE418013C29
:10A89000621B5C1BBC4228BF3C46944228BF144646
:10A8A00049462844224601F067FFB3682544AB427D
:10A8B00008BF00253F1BA044A144F560E1D14046FC
:10A8C000BDE8F88310B5114C114AA2610223C4E916
:10A8D0000433104BE361A2644FF400730E4A0F4936
:10A8E0002362E26400231022E01DA3626362E3623C
:10A8F000A3656365E365226501F09AFF0849204678
:10A9000001F096FF2023A37110BD00BFE03B0020A3
:10A9100010D80200683C0020583C002019D80200E2
:10A920001DD8020070B5164B182400FB04451D44C9
:10A9300004FB00331646DC6A012C0ED0022C18D022
:10A94000E4B92846FFF770FF864204D8324628460D
:10A95000FFF773FF3446204670BD2846FFF764FFBB
:10A960008642344628BF044622462846FFF765FF44
:10A97000F1E72846BDE87040FFF77BBF0024EAE717
:10A98000E03B0020FFF79EBF6DDF704779DF704727
:10A990007DDF704764DF70472DE9F04F85B00025FB
:10A9A0000E9CBDF83CB0B4F800A00191074690465B
:10A9B0001E46A9463A884A450DDC45B12388013B2D
:10A9C000A3EB0A039BB2FF2B3AD806F80A3000200B
:10A9D00005B0BDE8F08F7A6852F829000390002294
:10A9E0000DF10B0103A8FFF7D5FF0028F0D19DF86A
:10A9F0000B20424521D12288002D14BF00200220C7
:10AA000002EB0801014459451ADC3DB9013292B20A
:10AA1000019B2280B35422880132228022880DF1CA
:10AA20000B01324403A8FFF7B5FF0028D0D12188DD
:10AA30009DF80B200A442280012509F10109B9E79C
:10AA40000C20C5E72DE9F341089FBDF82480154689
:10AA5000CDE90078022204461E46FFF79DFF50B95B
:10AA60003346102229462046CDE9087802B0BDE8D9
:10AA7000F041FFF791BF02B0BDE8F0812DE9F04F42
:10AA800000231788138090F82D3085B006460D46B8
:10AA900014465BB3082F01D80C2028E102A8FFF769
:10AAA00073FF002840F023812388DDF80910082275
:10AAB000EA54238801339BB21B222380EA54238863
:10AAC00001339BB2EA182380E950BDF80D30938022
:10AAD00023889DF8082006339BB212F0FE0218BFAF
:10AAE00001222380EA54238801332380B378FBB109
:10AAF00023880433BB42CFD802A8FFF747FF0028C2
:10AB000040F0F58023880322EA54238801339BB266
:10AB100019222380EA542388BDF8082001339BB210
:10AB2000E9182380EA54120A4A70238802332380EA
:10AB3000F2789AB12388D91CB942ADD80221E954E0
:10AB4000238801339BB201212380E95423880B44DD
:10AB50009BB22380EA5423880B4423807268AAB1F5
:10AB60002388D91CB94297D8022192F90020E954D0
:10AB7000238801339BB20A212380E95423880133BF
:10AB80009BB22380EA542388013323803389002B2E
:10AB900040F0A180338A5BB1CDE900472B46072204
:10ABA000032106F11000FFF74DFF002840F09F80C1
:10ABB000338B5BB1CDE900472B461522142106F1FA
:10ABC0001800FFF73FFF002840F09180326A002A0A
:10ABD00040F09080D6F82480B8F1000F30D0B8F85B
:10ABE00004302188981C8A1C0244BA423FF654AFB4
:10ABF000FE283FF651AF03336B54238801339BB2D9
:10AC0000FF222380EA54238801339BB22380B8F8C3
:10AC10000020EA54E918120A4A702088023080B2F3
:10AC20002080B8F804205AB1D8F8081000296BD059
:10AC3000284401F0A1FD2388B8F8042013442380A0
:10AC400096F82C30002B40F09880307800284ED0B9
:10AC50003388012B58D0228802F1020CBC453FF604
:10AC60001BAF012805D17378023313449F42FFF4D0
:10AC700013AF023FBF1ABFB202A905EB0C00ADF83B
:10AC80000870FFF785FE90BB3178BDF808300229C7
:10AC900000F0B98072789A4202D39F4280F0B1806E
:10ACA000012940F0B280974293B2C0F0AE80ADF877
:10ACB00008300821BDF80830FE2B3FF6EDAE2288A3
:10ACC0000133AB542288013292B22280A9542288E7
:10ACD000134423800BE0CDE900472B4606220221D6
:10ACE00006F10800FFF7AEFE00283FF453AF05B0B1
:10ACF000BDE8F08FB4F800C00CF10603BB423FF68C
:10AD0000CBAE1188052901D80720F0E76FF4486E13
:10AD100001EB0E039BB24FF27D3E7345F4D953888D
:10AD2000052BF1D96FF44860181880B27045EBD943
:10AD30004FF6FF70814201D09942E5D8052305F80E
:10AD40000C30238801339BB212212380E9542388DD
:10AD500001339BB223801188E954E818090A417035
:10AD6000238802339BB223805288EA54E918120ADE
:10AD70004A702388023323802CE7B36A002BC3D0A8
:10AD80004FF000084FF00C0A4FF0160BB16A5FFA53
:10AD900088F20AFB02F201EB0209B9F80430981CB0
:10ADA000FE283FF679AE208803332B5423880133E5
:10ADB0009BB2238005F803B0238801339BB2238024
:10ADC0008A5AEA54E918120A4A702088023080B27E
:10ADD0002080B9F804205AB1D9F80810002993D07E
:10ADE000284401F0C9FC2388B9F8042013442380C7
:10ADF00096F82C2008F101085FFA88F39A42C5D82A
:10AE000023E7092156E79F42FBD2ADF8087050E7CF
:10AE100030B5C8B1F2B10024651C8D4206DA158840
:10AE2000A54212D805196D789D420ED1A14211D9C3
:10AE3000005D48B1013880B230B10234A3B210FADB
:10AE400084F4A14206DB138030BD055D01352C443E
:10AE5000A4B2E1E70020F7E713B513460022ADF8EE
:10AE600006200DF106020446FFF7D2FF10B1BDF82F
:10AE70000630E01802B010BD72DF704773DF704714
:10AE800038B5012204460D46B0F81414D0F8100469
:10AE9000FFF7E2FF00B1057004F13C0204F58261A6
:10AEA00004F15400BDE83840FFF7E6BF80F83010E9
:10AEB0007047F8B504460F46002973D0002871D0BA
:10AEC00091F87A301BB191F89830002B6CD1D7F8FB
:10AED000A030042B68D0D7F89C30042B64D04FF0FE
:10AEE000000C84F802C007F178060FCE251D0FC5AF
:10AEF0000FCE0FC596E8070085E8070084F830C03C
:10AF0000D7F8A4306363D7F8A830A36304F582624E
:10AF10004FF6FF73C4F826C4A4F82434C4F82024E0
:10AF2000C4F829C422780AB984F8543094F824303B
:10AF3000002B14BFEE231F2304F15501C4F8101495
:10AF4000A4F8143404F214423846FFF797FD40BBCE
:10AF500094F82430002B14BFEE231F2304F2312178
:10AF6000C4F81814A4F81C3404F21C4207F13C0085
:10AF7000FFF784FDA8B9A369A4F848304FF48073A3
:10AF80000125A4F8503063692064014684F83C50E0
:10AF9000636404F13C0204F15400FFF76DFF00B953
:10AFA0002570F8BD0E20FCE70720FAE7F8B5077812
:10AFB00004460D46002F00F001810023C0F826341E
:10AFC000C0F82934C388817000F226460BB10129EC
:10AFD00003D0E37943B1022D06D1636BABB10122FB
:10AFE00084F82D240820984704F2274304F22D41C9
:10AFF00013F8012B12B99942FAD117466B1E032B95
:10B000004ED8DFE803F0050B0F1284F82D34EBE780
:10B01000A3791BB194F8243003B95FB9E3790BB17C
:10B02000002F3FD1237A002B3ED1637A002B0CBF37
:10B0300000250425636BA570002B37D0033D012D3F
:10B0400034D8627992B394F82E247ABB84F83024F1
:10B05000012284F82F240720984704F13C05182288
:10B060000021284601F0B1FBE26A531E0121022BA8
:10B0700028BF0A4684F8512094F8242084F83C1014
:10B0800032B1A36A581E022828BF0B4684F85230FA
:10B09000A378042B1CD8DFE803F0780D23365A0080
:10B0A0000025C7E70225C5E70325C3E7002384F889
:10B0B0002F34D2E7012384F831300023C4E9106330
:10B0C000C4F82034022384F83C308023A4F84830AC
:10B0D000A378002B5DD1636B002B6BD1002068E05F
:10B0E0000223002A84F8313014BF0723032384F895
:10B0F0003C302369A4F848300023C4F82034E368C6
:10B1000026646364E4E763696364A369A4F8483070
:10B1100012B1062384F83C306379B3B194F82E342D
:10B120009BB994F8303483B1022384F85030042161
:10B130002046FFF7A5FE0028CAD1052384F8313048
:10B1400004F58263C4F82034C2E70323F6E7E36919
:10B150006364236AA4F8483012B1062384F83C30B3
:10B16000637983B194F82E346BB994F8303453B1C9
:10B17000022384F8503004212046FFF781FE002886
:10B18000A6D10623DAE70423D8E7002384F8313078
:10B190009EE7D4F820142A4604F15400FFF76CFE11
:10B1A00038B994F8301094F85400FFF767FE00287F
:10B1B00091D0F8BD94F8310098478FE70820F8E760
:10B1C0000388112B10B50C460AD0262B1FD0102B4C
:10B1D00005D1C37B012B02D18388A1F8243410BD93
:10B1E0000022838881F82E24B1F824249A42F6D1D3
:10B1F0000B79002BF3D101212046FFF7D7FE002861
:10B20000EDD0A36B002BEAD0BDE810401847037ABD
:10B21000013B012BE3D8897805230131B1FBF3F31E
:10B2200003EB8303C91AC9B2E6E775DF704776DF1F
:10B2300070477ADF70477BDF70470000034B1A8846
:10B2400082420CBF18460020704700BF843E002099
:10B25000024B9B6903B11847704700BF683E00204E
:10B2600073B585B22846FFF7E9FF044638B3174E99
:10B27000027A337B9A420CD200F10A012846FFF78A
:10B28000D4FFF0B111281AD002B0BDE87040FFF72A
:10B29000DFBF00230372337C43B13B212846FFF715
:10B2A000C6FF30F0080301D0FFF7D2FF736933B156
:10B2B00000228DF80420ADF8065001A8984702B08E
:10B2C00070BD237A01332372F9E700BF683E002086
:10B2D00037B50B46497A0F4A79B9D2E901141D7A7C
:10B2E0000246002D18BF21465868FBF739FE78B199
:10B2F00003B0BDE83040FFF7ABBF002119725369BE
:10B3000033B10122ADF806008DF8042001A898475A
:10B3100003B030BD683E00204B8802889A4212D8A4
:10B3200042889A420FD380888B8840F2F31188427A
:10B3300094BF021A421A9A4205D80844984234BF70
:10B340000020012070470020704700000388122B66
:10B3500070B5014659D004D8102B1ED0112B44D003
:10B3600070BD502BFCD12F4BC288DB899A42F7D19C
:10B37000038A022BF4D186883046FFF75FFF05462B
:10B380000028EDD001F1120000F07FF938BB6868A9
:10B39000FBF714FE0028E3D009E0C37B012BDFD1CB
:10B3A0004FF6FF70FFF74AFF054620B90420BDE8BD
:10B3B0007040FFF74DBF1C4A8E8806800023037241
:10B3C0001368C0F80A305368C0F80E3010310A30E4
:10B3D000FFF7A2FF134B6872DB89002BC0D129460F
:10B3E0003046BDE87040FFF773BF8088FFF726FF47
:10B3F00004460028B4D04068FBF7E0FD08B1FFF731
:10B4000027FF4FF6FF732380AAE786883046FFF7B1
:10B4100015FF05460028A3D008310A30FFF77CFF4E
:10B420006872DCE7683E0020983E0020F8B50646CA
:10B4300048B305460FCD154F3C460FC495E80700AD
:10B4400084E807003068124C3C60B0B1FFF7F1FEB1
:10B45000C0B9326813682360536863600D480E4AB0
:10B460004FF6FF7303800D4B40F8043F0021FBF7BC
:10B4700065FD002818BF032004E02046FFF7DBFE2F
:10B480000028EBD0F8BD0E20FCE700BF683E00208E
:10B49000983E0020843E002061B20200A03E0020C1
:10B4A0000AB1FCF7A3B9FCF7AAB973B50191019CE5
:10B4B00006466CB100252C46294601A8FCF7A9F9DF
:10B4C00018B106EB440301349D800135142DF3D1EE
:10B4D0003046346002B070BD2DE9F047038884889F
:10B4E000103B8CB005460A2B21D8DFE803F006405C
:10B4F00020202020202020654700DFF8E880D8F8B1
:10B500000830DB430093D8F804106846FCF7ADF927
:10B51000009901A8FFF7C9FF0DF108090027019B59
:10B520009F4207D3132C12D90420FBF7C3FB0CB0A6
:10B53000BDE8F08739F802AB00260136514608EB2A
:10B540008600FCF75CF91E2EF7D10137E7E71F48AC
:10B550002146FCF74BF91E482146FCF747F9EB7BE7
:10B56000022BE4D11B482146FCF740F9DFE71748DE
:10B5700021460CB0BDE8F047FCF741B9027A164805
:10B580003F2A4FEA1215214694BF00220122FFF7FD
:10B5900087FF022D94BF0022012210482146FFF7A9
:10B5A0007FFF012D0E4894BF0022012221460CB0DE
:10B5B000BDE8F047FFF774BF037A002BB7D1427A9A
:10B5C0000548C2F3C0022146F1E700BFC83E002093
:10B5D000C43E0020CC3E0020D83E0020D43E0020B7
:10B5E000D03E0020C03E00201328014602D8024869
:10B5F000FCF70FB900207047C43E002010B5044688
:10B60000FFF7F2FF002814BF2046142010BD70B5CC
:10B610000546164608460AB90E2070BD0023136081
:10B62000002DF9D02B68002BF6D0EB8813F0030423
:10B630000ED1FFF7E3FFC0B214280BD02B79834261
:10B640000AD9EA882B6800FB023030602046E4E724
:10B650000720E2E70520E0E70420DEE7AADF7047E5
:10B66000002301380B70042806D8DFE800F0030639
:10B67000080A0C0011230B7070472123FBE73123CC
:10B68000F9E71223F7E72223F5E7008800F001002D
:10B690007047F0B58B7891B00C46012B38BF012371
:10B6A00000278DF80E3005460B88607CADF80C3015
:10B6B0006946ADF800708DF80270FFF7D1FFA07CED
:10B6C0000DF10101FFF7CCFF1646237BE27B217DC4
:10B6D00043EAC203227C43EA02139DF80220B942E6
:10B6E00022F0190203F0190314BF022101211343B0
:10B6F00061F342031C22394609A88DF8023001F09B
:10B7000064F8637B13F0300F14D00DF10901E07C75
:10B71000ADF808708DF80A70FFF7A2FF11238DF8BD
:10B7200008309DF80A30012102AA61F342038DF826
:10B730000A300E92637B8DF82430A37B8DF8253080
:10B740000023CDE90633089303AB0493A388ADF837
:10B750001C30A368CDF814D01BB1E288ADF81820D6
:10B760000893A36973B301A90022ADF804208A707D
:10B770001A88ADF82C205A88ADF82E205A680D9101
:10B78000187B0A92FFF76CFFA3690DF10501587B46
:10B79000FFF766FFA3699A7A197A41EAC201DA7A59
:10B7A0009B7B41EA02119DF80620002B01F0190154
:10B7B00022F0190214BF02230123114363F3420153
:10B7C0008DF80610E36903B10C93334604AA09A966
:10B7D0002846FFF743FF11B0F0BD90DF7047A5DFAB
:10B7E0007047B5DF704700007FB50023ADF8081043
:10B7F000ADF80A106A4602A90646ADF80C30ADF85D
:10B800000E300093ADF80430FFF7E7FF054600B3B4
:10B81000114B124CE41AE408FCF7CEFB240444F06C
:10B82000010403460E4932462046FBF7DEF8BDF818
:10B830000020BDF8023052EA030103D00949204636
:10B84000FBF7D3F8BDF804201AB107492046FBF7EF
:10B85000C3F8284604B070BD54CF0200BCCF02002C
:10B8600024D802006ED80200ADD8020080B14FF09B
:10B87000F7130360FB230371F723C38017230381AE
:10B8800041F6FB32002301614381828118467047F3
:10B890000E20704730B1A1F11703E02B04D80180CE
:10B8A000002070470E2070470720704713B50346ED
:10B8B00080880C46B8B91A88242A00F09C8014D8D5
:10B8C000112A74D0232A00F0A780102A3ED0A37A30
:10B8D0004BB1E1880020FFF782FF002840F0A280F2
:10B8E0004FF48073638102B010BD3A2A68D0552AA4
:10B8F000EDD1DB88C988A072172B38BF17238B4284
:10B9000028BF0B462381FFF76CFF60B1FCF754FBA7
:10B910004E4B4F4902464F481B1ADB081B0443F0AD
:10B920000100FBF759F8E27A002AD0D12369002BF5
:10B93000CDD040F67721ADF802202289ADF8001075
:10B94000ADF80420694620469847C0E7DB7B0A79BA
:10B950000A73012B13D0022B14D0E18823898B4268
:10B9600005D20020FFF73BFF70B90123E372217B72
:10B97000637B8B42ABD20020FFF736FFA7E70B8833
:10B98000E380EAE74B88FBE7112802D10123A37289
:10B99000EDE7FCF711FB2D4B2F4902462D481B1AF2
:10B9A000DB081B0443F00100FBF716F8DFE7F72381
:10B9B000CB8017230B8141F6FB3348818B8186E7CF
:10B9C0005B89CA88934228BF1346172B0A6938BF80
:10B9D00017230B8162B1C97A51B140F67721ADF8D6
:10B9E0000010ADF80200ADF80430694620469047DB
:10B9F000002363816BE71A7A0B694A73002B3FF4CB
:10BA000066AF4DF67A218DF80500ADF80010ADF85F
:10BA100002008DF8042095E7197A237B994228BF0C
:10BA20001946A9E711283FF45EAFFCF7C5FA074BAA
:10BA30000949024607481B1ADB081B0443F00100B2
:10BA400002B0BDE81040FAF7C7BF00BFBCCF02008C
:10BA500034D9020054CF020003D90200B0DF70478E
:10BA600066DF704710B5002104464088FFF7F8FFF5
:10BA7000034608B9237210BD112801D10123F9E74B
:10BA80006368BDE81040184760B159B10378DE2BF8
:10BA90000AD00B684360DE2303704FF6FF734380C8
:10BAA000002070470E2070470820704728B10378A7
:10BAB000DE2B04D14180002070470E207047082003
:10BAC0007047F0B5054685B00C46002942D00028E5
:10BAD00040D00B78DE2B3DD182884B889A4204D12E
