:020000022000DC
:106000000000012019620200016202000362020026
:10601000056202000762020009620200000000003F
:106020000000000000000000000000000B62020001
:106030000D620200000000000F6202001162020007
:1060400059C1020013620200BDC9020013620200BE
:106050001362020013620200EDC50200ADCE020021
:10606000E1DD0200F9DD020011DE02001362020030
:106070001362020013620200136202001362020044
:1060800013620200A11003001362020013620200F7
:106090001362020013620200A93D030013620200B2
:1060A000136202001362020029DE020041DE0200D8
:1060B00013620200136202000000000000000000F2
:1060C00013620200136202001362020013620200F4
:1060D000136202001362020013620200000000005B
:1060E00000000000000000000000000000000000B0
:1060F00000000000000000000000000000000000A0
:10610000000000000000000000000000000000008F
:10611000000000000000000000000000000000007F
:10612000000000000000000000000000000000006F
:10613000000000000000000000000000000000005F
:10614000000000000000000000000000000000004F
:10615000000000000000000000000000000000003F
:10616000000000000000000000000000000000002F
:10617000000000000000000000000000000000001F
:10618000000000000000000000000000000000000F
:1061900000000000000000000000000000000000FF
:1061A00000000000000000000000000000000000EF
:1061B00000000000000000000000000000000000DF
:1061C00000000000000000000000000000000000CF
:1061D00000000000000000000000000000000000BF
:1061E00000000000000000000000000000000000AF
:1061F000000000000000000000000000000000009F
:10620000FEE7FEE7FEE7FEE7FEE7FEE7FEE7FEE766
:10621000FEE7FEE700F002B8FFF7FCBF0F484FF0C3
:106220000701884385460E4880470E48016841F4BF
:1062300070010160BFF34F8FBFF36F8F00F01AB88A
:1062400009480A490A4A884207D0521A05D00378F9
:1062500001300B700131013AF9D170470000012083
:106260003188020088ED00E0944D0300D82A002018
:10627000D82A0020354936480A1A02D0072291430D
:106280008D46344934480A1A06D00722914381F3D7
:106290000988022282F3148830483149314A00F0DB
:1062A00044F831483149324A00F03FF83148324928
:1062B000324A00F03AF832483249334A00F035F8B1
:1062C00032483349334A00F030F833483349344ACE
:1062D00000F02BF833483449344A00F026F83448AB
:1062E0003449002200F02CF833483449002200F0F1
:1062F00027F833483349091A082902DB00220260D3
:106300004160314A90471F481F49884205D00268C2
:10631000043003B4904703BCF7E700208646EC4600
:1063200000200021294A9047FEE7884207D0521AF0
:1063300005D0037801300B700131013AF9D1704773
:10634000884202D002700130FAE770470000012055
:1063500000E0002000000120000001201C7103006B
:10636000D82A0020C02B0020D0630200D063020096
:10637000704C03001C710300D82A0020D82A00208A
:10638000944D0300944D0300944D0300944D03007D
:10639000944D0300944D0300944D0300944D03006D
:1063A0001B71030004720300C02B0020C02B0020CF
:1063B000C02B0020943F0020943F0020943F0020F9
:1063C000943F0020945F00204162020009760200A1
:1063D00076DF704700BF18467ADF704700BF184667
:1063E0007CDF704700BF18467FDF704700BF18464C
:1063F0008FDF704700BF1846B1DF704700BF1846F7
:1064000033DF704700BF184600B583B00190019B91
:106410001B68184600F08EF80346002B04D105498E
:106420004FF4F67000F044F94FF0A043184603B063
:106430005DF804FB944D030000B585B0019008465B
:1064400011461A4603468DF803300B468DF802308C
:1064500013468DF8013001AB1846FFF7D5FF0390C6
:106460009DF803209DF802305B001A439DF801302F
:106470009B001A439DF818301B0242EA03019DF865
:106480001C301B04019A1943039B02F5E07243F888
:10649000221000BF05B05DF804FB00B585B0039085
:1064A000002301930023009300230122012103987C
:1064B000FFF7C2FF00BF05B05DF804FB00B585B073
:1064C000019001AB1846FFF79FFF0390019B01224B
:1064D00002FA03F31946039800F018F800BF05B05C
:1064E0005DF804FB00B585B0019001AB1846FFF7DD
:1064F0008BFF0390019B012202FA03F319460398D4
:1065000000F00EF800BF05B05DF804FB82B001900A
:106510000091019B009AC3F8082500BF02B07047A4
:1065200082B001900091019B009AC3F80C2500BF36
:1065300002B0704784B00190019B5B090293002375
:106540000393029B002B03D14FF0FF33039300BF53
:10655000019B03F01F030193039A019B22FA03F3AB
:1065600003F00103002B14BF01230023DBB2184604
:1065700004B0704700B583B001900091019B002BDF
:1065800001D1054B01930099019806F0BFFD034628
:10659000184603B05DF804FB9C4F030082B00190E5
:1065A0000B46ADF80230BDF80230019A134418468C
:1065B00002B0704782B00190019BD3F81035DBB276
:1065C000184602B0704782B00190019B9B0003F512
:1065D000A0739BB2184602B070470000F0B587B0B8
:1065E00001900B468DF803309DF803300593019B15
:1065F00000221E4617464FF000024FF000033B01F9
:1066000043EA167332010599C1F12006A1F1200079
:1066100022FA01F403FA06F6344323FA00F00443A5
:1066200023FA01F5CDE90245DDE90223012B04D36C
:10663000044940F2B92000F03BF8029B184607B02D
:10664000F0BD00BFC44D030010B582B001900091B1
:10665000019B5B791A46009B934204D3094940F29F
:10666000711000F025F8019B1C680098FFF7ABFF44
:10667000034619462046FFF791FF0346184602B02D
:1066800010BD00BFF44D030000B583B00190009130
:10669000019B1B681846FFF78DFF034619460098BB
:1066A000FFF79CFF0346184603B05DF804FB0000AB
:1066B00000B583B003460091ADF80630BDF8063052
:1066C000009A1946034809F0A3F800BF03B05DF82B
:1066D00004FB00BFEFBEADDE00B583B009F0F4FCF3
:1066E0000190019B0093009B002B04D0044A72216F
:1066F000009809F08DF800BF03B05DF804FB00BFFF
:10670000304E030000B587B09DF80030012262F3DF
:1067100003038DF800309DF80030012262F3071367
:106720008DF800306B4614221A491846FFF758FEC0
:106730000590059B0493049B002B04D0164A8521E9
:10674000049809F065F801AB0822002118460DF005
:106750002AFF1023ADF804303C23ADF806300023A7
:10676000ADF808304FF4C873ADF80A3001AB1846E5
:10677000FFF732FE0590059B0393039B002B04D08B
:10678000054A8F21039809F043F800BF07B05DF870
:1067900004FB00BFB84E0300304E030000B583B0C9
:1067A0000190044A9C21019809F032F800BF03B01F
:1067B0005DF804FB304E030000B585B00190019BED
:1067C0001B78002B10D10A4B1B883B211846FFF782
:1067D000FFFD0390039B0293029B002B04D0054A0C
:1067E000B221029809F014F800BF05B05DF804FB6F
:1067F000FC2A0020304E030000B583B00190044A0B
:10680000BD21019809F004F800BF03B05DF804FB56
:10681000304E030000B58BB001AB1C22002118469E
:106820000DF0C1FE002301934FF4A03302934FF407
:10683000F023039303238DF810300023ADF81230BA
:1068400000238DF814300B4B06930B4B079301ABD1
:10685000184603F0F7FC0990099B0893089B002B4E
:1068600004D0064AD421089808F0D2FF00BF0BB02C
:106870005DF804FBB9670200F9670200304E0300BF
:1068800000B585B0002001F061FB0390039B0293EB
:10689000029B002B04D0114ADF21029808F0B8FFB8
:1068A00001F051FC0390039B0193019B002B04D04A
:1068B0000A4AE321019808F0ABFFFFF7A1FD03901E
:1068C000039B0093009B002B04D0044AE72100980F
:1068D00008F09EFF00BF05B05DF804FB304E0300DA
:1068E00000B585B003468DF807309DF80730002BC2
:1068F00010D0032B11D1022001F028FB0390039B41
:106900000293029B002B0AD0074AF921029808F053
:106910007FFF04E0FFF7B4FF02E000BF00E000BF2C
:1069200000BF05B05DF804FB304E030000B58DB02C
:1069300001900091019B1B88562B00F0D480562BB0
:1069400000F3E480522B00F0A780522B00F3DE808E
:10695000212B2DDC102BC0F2D980103B112B00F223
:10696000D58001A252F823F0B96902001D6A020025
:106970000D6B0200716A02000D6B02000D6B0200CC
:106980000D6B02000D6B02000D6B02000D6B02001F
:106990000D6B02000D6B02000D6B02000D6B02000F
:1069A0000D6B02000D6B02000D6B02003D6A0200D0
:1069B0003B2B00F08580A9E05D4A5E4BD31ADB08D3
:1069C0001B0443F003035C4918460CF05FFA0720F0
:1069D00001F0BCFA0B900B9B0593059B002B05D097
:1069E000564A4FF48971059808F012FF019B9A8866
:1069F000534B1A80524B1B881946524804F0A6FC90
:106A00000B900B9B0493049B002B00F081804B4A5E
:106A100040F21511049808F0FBFE79E0444A454B1A
:106A2000D31ADB081B0443F00303474918460CF054
:106A30002DFA434B4FF6FF721A8074E000238DF855
:106A40000C3000238DF80D30019B9B8803AA114662
:106A50001846FFF7CDFC0B900B9B0793079B002B71
:106A600058D0364A40F22711079808F0D1FE51E07D
:106A7000334B1888002300228521FFF7B5FC0B90CB
:106A80000B9B0693069B002B46D02C4A40F22D11FF
:106A9000069808F0BDFE3FE0294B1888002300222D
:106AA0000021FFF7A9FC0B900B9B0993099B002B7E
:106AB00034D0224A40F23311099808F0A9FE2DE0A3
:106AC000019B9B8813211846FFF782FC0B900B9BC0
:106AD0000893089B002B23D0184A4FF49D71089807
:106AE00008F096FE1CE0019B9B8813211846FFF7D7
:106AF0006FFC0B900B9B0A930A9B002B12D00F4A42
:106B000040F241110A9808F083FE0BE000BF0AE052
:106B100000BF08E000BF06E000BF04E000BF02E0E5
:106B200000BF00E000BF00BF0DB05DF804FB00BF78
:106B30002C4D0300EC4C0300D04E0300304E0300FC
:106B4000FC2A0020F02B0020DC4E030000B587B0AB
:106B50000DF0A8F80590059B0493049B002B05D02D
:106B6000164A4FF4AA71049808F052FE00230193CC
:106B700001AB194601200DF04DF90590059B0393DB
:106B8000039B002B05D00D4A4FF4AD71039808F01C
:106B90003FFE01AB18460DF05BFA0590059B029392
:106BA000029B002B05D0054A4FF4AF71029808F004
:106BB0002FFE00BF07B05DF804FB00BF304E03009E
:106BC00000B583B001900091009B5A88114B1B883F
:106BD0009A421AD1009B1B8840F67722934214D127
:106BE000009B9B88033B9AB20B4B1A800B4A0C4BC1
:106BF000D31ADB081B0443F00300074B1B881A461B
:106C0000054B1B8807490CF060F900BF03B05DF825
:106C100004FB00BFFC2A0020FE2A00202C4D0300AC
:106C2000EC4C0300EC4E030000B585B0114912484E
:106C300004F06AFA0390039B0293029B002B05D099
:106C40000E4A40F27911029808F0E2FDF7210A4855
:106C500004F085FA0390039B0193019B002B05D060
:106C6000064A4FF4BE71019808F0D2FD00BF05B08E
:106C70005DF804FBC16B0200DC2B0020304E0300EA
:106C800000B587B00190019B1B78022B56D0022BD8
:106C900066DC002B02D0012B59D061E0344B1B780D
:106CA0001A46344B1344184609F0F0FC304B1B785D
:106CB0000133DAB22E4B1A702D4B1B78013B2D4A53
:106CC000D35C0A2B0DD02A4B1B78013B294AD35C9D
:106CD0000D2B06D0264B1B789AB2274B1B889A4265
:106CE00040D3234B1B78012B24D9214B1B789BB21B
:106CF000ADF80E30214B1B880DF10E021D492048C6
:106D000004F022FE0590059B082B10D0059B132B49
:106D10000DD0059B052B0AD0059B0493049B002BEB
:106D200005D0184A4FF4E571049808F071FD059BF1
:106D3000132BDAD00E4B00221A7013E0019B5B6814
:106D4000104A4FF4EA71184608F062FD0BE0019B0F
:106D50005B680C4A4FF4EC71184608F059FD02E0EC
:106D600000BF00E000BF00BF07B05DF804FB00BF3C
:106D70000031002004310020FE2A0020FC2A0020DF
:106D8000E02A0020304E030030B58DB0134B04AC28
:106D90001D460FCD0FC495E8030084E80300104B97
:106DA00000934FF4807301930E4B02934FF4807362
:106DB0000393694604A807230B4A09F0D7FB0B90FD
:106DC0000B9B0A930A9B002B05D0084A40F2FF1147
:106DD0000A9808F01DFD00BF0DB030BD084F03003C
:106DE000F8310020F8320020816C0200304E0300A0
:106DF00000B5EDB06CABA3F5D67318606CABA3F522
:106E0000D6731B681B78002B79D16CABA3F5D673B6
:106E10001B685B683221184606F054FB6990699B39
:106E20006893689B002B05D0374A40F20F21689881
:106E300008F0EEFC00236B9323E06CABA3F5D67354
:106E40001B685A686B9B5B001344B3F90030ADF8C4
:106E50009A316B9B5B00BDF89A21D1B26CAAA2F566
:106E6000D472D154BDF89A311B0A9AB26B9B5B0065
:106E70000133D1B26CAAA2F5D472D1546B9B013309
:106E80006B936B9B312BD8DD00236A9316E06CABC0
:106E9000A3F5D6731B685A686A9B5B001344B3F969
:106EA00000301A461BAB194918460DF029FB034662
:106EB0009BB2ADF898316A9B01336A936A9B312B80
:106EC000E5DD134B1B8866AA1BA9124804F03CFDA4
:106ED0006990699B082B0DD0699B052B0AD0699B93
:106EE0006793679B002B05D0074A40F225216798DE
:106EF00008F08EFC084B1B680133074A136000BF83
:106F00006DB05DF804FB00BF304E0300204F03005E
:106F1000FC2A0020E02A0020FC30002000B58DB0C3
:106F2000002006F05FFA06F061F9314B1B6806930A
:106F300002238DF818302F4A03AB07CA03C31A7017
:106F40002D4A6B4607CA03C31A7002238DF80E3010
:106F500001238DF80F3002238DF8023001238DF8C4
:106F6000033006AB25491846FFF704FB0B900B9B3B
:106F70000A930A9B002B05D0214A40F241210A982E
:106F800008F046FC6B461946012006F099F90B9073
:106F90000B9B0993099B002B05D0194A40F2452110
:106FA000099808F035FC3221164806F08BFA0B9050
:106FB0000B9B0893089B002B05D0114A40F24921F6
:106FC000089808F025FC32210F4806F07BFA0B9058
:106FD0000B9B0793079B002B05D0094A40F24B21DE
:106FE000079808F015FC00BF0DB05DF804FB00BF6A
:106FF000284F03002C4F0300384F0300F16D0200AF
:10700000304E0300303000209430002000B58DB0A9
:10701000012006F0E7F906F0E9F8314B1B6806930A
:1070200002238DF818302F4A03AB07CA03C31A7026
:107030002D4A6B4607CA03C31A7002238DF80E301F
:1070400001238DF80F3002238DF8023001238DF8D3
:10705000033006AB25491846FFF78CFA0B900B9BC3
:107060000A930A9B002B05D0214A4FF419710A9804
:1070700008F0CEFB03AB1946002006F021F90B9077
:107080000B9B0993099B002B05D0194A4FF41A71E9
:10709000099808F0BDFB3221164806F013FA0B9050
:1070A0000B9B0893089B002B05D0114A4FF41B71D2
:1070B000089808F0ADFB32210F4806F003FA0B9058
:1070C0000B9B0793079B002B05D0094A40F26E21CA
:1070D000079808F09DFB00BF0DB05DF804FB00BFF2
:1070E000284F03002C4F0300384F0300F16D0200BE
:1070F000304E0300303000209430002000B589B0BD
:107100000190474A05AB07CA03C31A70454A02AB50
:1071100007CA03C31A7002238DF8163001238DF8B5
:10712000173002238DF80A3001238DF80B30019BB4
:107130001B78002B6ED1019B1B691B78212B6AD811
:1071400001A252F823F000BF07720200D1710200C1
:10715000DF71020017720200FB710200017202006F
:1071600017720200177202001772020017720200F3
:1071700017720200177202001772020017720200E3
:1071800017720200177202001772020017720200D3
:1071900017720200177202001772020017720200C3
:1071A00017720200177202001772020017720200B3
:1071B00017720200177202001772020017720200A3
:1071C000177202001772020017720200ED710200BE
:1071D0001120FFF787F91220FFF770F91BE011204B
:1071E000FFF76CF91220FFF77DF914E01120FFF78B
:1071F00079F91220FFF776F90DE0FFF707FF0AE0B3
:10720000FFF78CFE07E01120FFF758F91220FFF777
:1072100055F900E000BF00BF09B05DF804FB00BFF6
:107220002C4F0300384F030000B587B000230193B3
:1072300000230093174B00936B461946164804F041
:1072400063F80590059B0493049B002B05D0134A1B
:1072500040F20531049808F0DBFA02AB0422002169
:1072600018460DF0A0F90E4B029302AB19460D48DB
:1072700004F0C4FA0590059B0393039B002B05D0F3
:10728000064A40F20D31039808F0C2FA00BF07B079
:107290005DF804FB9D670200F02B0020304E0300D8
:1072A000FD700200E02A002000B5AFB001ABAC22B7
:1072B000002118460DF077F902238DF804300023E1
:1072C0008DF8063005238DF807300123ADF85030D6
:1072D000124B159301238DF880304023239344F201
:1072E000506324930E4B2A9301AB19460D4802F0CC
:1072F00047FC2D902D9B2C932C9B002B05D00A4AEC
:1073000040F227312C9808F083FA0121054802F059
:107310002AFC00BF2FB05DF804FB00BF002B00204B
:10732000E1680200FC2B0020304E030008B511205C
:10733000FFF7B3F81220FFF7B0F800BF08BD000058
:1073400000B583B04FF4804100200BF0C7FA0190E4
:10735000019B0093009B002B05D0064A40F23A3176
:10736000009808F055FA0BF04FFA00BF03B05DF833
:1073700004FB00BF304E030000B583B00AF068FF85
:107380000190019B0093009B002B05D0044A40F222
:107390004631009808F03CFA00BF03B05DF804FBEA
:1073A000304E030008B50BF0CDFD0AF067FF00BFBB
:1073B00008BD000000B583B00321094802F0B8FC05
:1073C0000190019B0093009B002B05D0054A40F2E1
:1073D0005A31009808F01CFA00BF03B05DF804FBB6
:1073E000FC2B0020304E030082B003460091ADF824
:1073F000063000BF02B0704700B58DB004F06AFCE3
:107400000B900B9B0A930A9B002B05D0334A4FF439
:107410005A710A9808F0FCF900238DF8083000230F
:107420008DF8093000238DF80A3006238DF80B30D3
:107430000023039309238DF8083002AB284A19462C
:10744000284806F0EBFA0B900B9B0993099B002B45
:1074500005D0224A40F26D31099808F0D9F94FF46D
:1074600096712048FFF710F908900023009301233C
:10747000089A00211B4806F03CFC1A4806F0D2FB93
:1074800000211848FFF7E0F8079006F009F8069089
:10749000154805F0CBF90B900B9B0593059B002B32
:1074A00005D00E4A40F27931059808F0B1F90E4B3B
:1074B0001B78069A0799184605F012FA0B900B9B59
:1074C0000493049B002B05D0044A4FF45F71049889
:1074D00008F09EF900BF0DB05DF804FB304E0300CC
:1074E000E9730200944F0300F830002000B583B028
:1074F0000A4B1B78184605F02CFA0190019B00936B
:10750000009B002B05D0064A40F28331009808F01A
:107510007FF900BF03B05DF804FB00BFF830002026
:10752000304E030000B58DB0304B1B68069302232C
:107530008DF818302E4A03AB07CA03C31A702D4AC0
:107540006B4607CA03C31A7002238DF80E3001235D
:107550008DF80F3002238DF8023001238DF80330AF
:1075600006AB25491846FFF705F80B900B9B0A93CD
:107570000A9B002B05D0214A4FF466710A9808F047
:1075800047F903AB1946002005F09AFE0B900B9BC0
:107590000993099B002B05D0184A40F29E310998A7
:1075A00008F036F93221164805F08CFF0B900B9B42
:1075B0000893089B002B05D0104A40F2A23108988E
:1075C00008F026F932210F4805F07CFF0B900B9B49
:1075D0000793079B002B05D0084A4FF46971079861
:1075E00008F016F900BF0DB05DF804FB284F03004A
:1075F0002C4F0300384F0300F16D0200304E0300A2
:10760000303000209430002008B5FFF7BDFBFFF7B5
:1076100097FEFFF761F8FFF789FEFFF7ADFEFFF772
:1076200095FAFFF76FF8FFF7FFFAFFF7FDFDFFF799
:107630003BFEFFF7EFF8FFF7DFFEFFF773FFFFF703
:1076400055FF09480CF042FF084A094BD31ADB08E2
:107650001B0443F00303074918460BF017FCFFF720
:10766000A9FEFFF79FFEFCE7544F03002C4D0300DB
:10767000EC4C0300684F030000B583B00190019B00
:107680001B68184600F09DF80346002B04D10549FD
:107690004FF4F670FFF70CF84FF0A043184603B014
:1076A0005DF804FBA04F030000B585B0019001AB6D
:1076B0001846FFF7E1FF0390019B012202FA03F352
:1076C0001946039800F069F800BF05B05DF804FBA7
:1076D00000B585B0019001AB1846FFF7CDFF0390D0
:1076E000019B012202FA03F31946039800F05FF8A8
:1076F00000BF05B05DF804FB00B585B0019001AB9B
:107700001846FFF7B9FF0390039BD3F804350293A3
:10771000029BDA43019B012101FA03F31A40039B08
:10772000C3F80825019B01229A40029B1A40039B43
:10773000C3F80C2500BF05B05DF804FB00B583B0AD
:1077400001900091009B002B03D10198FFF7C0FF2F
:1077500002E00198FFF7A8FF00BF03B05DF804FB4B
:1077600000B585B0019001AB1846FFF785FF039087
:10777000039800F00AF80246019B22FA03F303F093
:107780000103184605B05DF804FB82B00190019B2F
:10779000D3F80435184602B0704782B001900091CA
:1077A000019B009AC3F8082500BF02B0704782B061
:1077B00001900091019B009AC3F80C2500BF02B014
:1077C000704784B00190019B5B09029300230393EF
:1077D000029B002B03D14FF0FF33039300BF019BAB
:1077E00003F01F030193039A019B22FA03F303F0B2
:1077F0000103002B14BF01230023DBB2184604B0A1
:107800007047000000B585B00190019B032B03D9A0
:1078100011493A20FEF74CFF104A019B13441B7894
:107820001846FFF79DFF0346002B14BF01230023DA
:107830008DF80F309DF80F30002B14BF012300236B
:10784000DBB283F00103DBB203F00103DBB21846C5
:1078500005B05DF804FB00BFD04F03004C5003009F
:1078600000B583B00190019B032B03D90749412048
:10787000FEF71EFF064A019B13441B7800211846A1
:10788000FFF75CFF00BF03B05DF804FBD04F0300BF
:107890004C50030000B583B00190019B032B03D92A
:1078A00007494720FEF704FF064A019B13441B7853
:1078B00001211846FFF742FF00BF03B05DF804FB4B
:1078C000D04F03004C50030000B583B00023019358
:1078D00005E00198FFF7DEFF019B01330193019B57
:1078E000032BF6D900BF00BF03B05DF804FB00B561
:1078F00083B00023019305E00198FFF7B1FF019BDE
:1079000001330193019B032BF6D900BF00BF03B0E5
:107910005DF804FB00B583B00190019B032B03D9F4
:1079200007495F20FEF7C4FE064A019B13441B78FB
:107930001846FFF7E1FE00BF03B05DF804FB00BF8F
:10794000D04F03004C50030000B583B00190019B61
:10795000032B03D90549CB20FEF7AAFE044A019B5D
:1079600013441B78184603B05DF804FBD04F0300A6
:107970005050030000B583B00190019B1B6818466E
:1079800000F03EF80346002B04D105494FF4F67091
:10799000FEF78EFE4FF0A043184603B05DF804FBDF
:1079A0005450030000B585B001900B468DF80330AC
:1079B00001AB1846FFF7DEFF0390019A039B02F527
:1079C000E07253F82230019A23F44031039B02F510
:1079D000E07243F82210019A039B02F5E07253F81B
:1079E00022309DF8032012041146019A1943039B8B
:1079F00002F5E07243F8221000BF05B05DF804FB09
:107A000084B00190019B5B09029300230393029BC6
:107A1000002B03D14FF0FF33039300BF019B03F012
:107A20001F030193039A019B22FA03F303F001035E
:107A3000002B14BF01230023DBB2184604B07047AB
:107A400000B583B00C4B1B78002B0FD000230193A3
:107A500008E0019B022B02D00198FFF71BFF019B5E
:107A600001330193019B032BF3D901E0FFF72CFFB6
:107A700000BF03B05DF804FB003400202DE9D04FB7
:107A800092B003468DF83F300023119300231093EA
:107A9000CC4B1B78002B04D0CA4A00231370FFF78D
:107AA000CFFF9DF83F30172B00F23F8201A252F822
:107AB00023F000BF157B02002D7B02002D7B02000E
:107AC000C97B0200657C0200E17C0200757D02003A
:107AD000957D0200A57D0200D17D0200EF7D0200B0
:107AE0000D7E02002B7E0200397E0200397E0200EC
:107AF000397E0200397E0200397E0200CD7E02000E
:107B0000DB7E0200EF7E0200037F02001D7F020089
:107B10001D7F0200FFF794FFAB4B184608F0A4FB53
:107B20001190AA4A9DF83F301370FFE10020FFF743
:107B300069FE0346002B0DD00020FFF7ABFE9DF839
:107B40003F30022B02D14FF4E16301E04FF47A633E
:107B500010930BE00020FFF783FE9DF83F30022BCF
:107B600001D1C82301E04FF4C8731093974A9DF8E0
:107B70003F301370944C109B0022009301924FF001
:107B800000024FF00003DDE900673946CB033146C0
:107B900043EA51433146CA0312F57A71029143F127
:107BA000000303934FF4FA624FF00003DDE9020192
:107BB0000CF058FB02460B4613460022194620469D
:107BC00008F0FAFA1190B1E10020FFF71BFE03461E
:107BD000002B0DD00020FFF75DFE9DF83F30032BFA
:107BE00002D14FF4487301E04FF47A6310930BE035
:107BF0000020FFF735FE9DF83F30032B01D1C8234D
:107C000001E04FF4C8731093704A9DF83F30137031
:107C10006D4C109B0022049305924FF000024FF030
:107C20000003DDE904673946CB03314643EA51439B
:107C30003146CA0312F57A71069143F100030793A6
:107C40004FF4FA624FF00003DDE906010CF00AFB85
:107C500002460B46134600221946204608F0ACFAAD
:107C6000119063E10020FFF7CDFD0346002B06D005
:107C70000020FFF70FFE4FF47A63109305E0002019
:107C8000FFF7EEFD4FF4C8731093504A9DF83F3054
:107C900013704D4C109B00229A4693464FF0000201
:107CA0004FF000034FEACB3343EA5A434FEACA325C
:107CB00012F57A71089143F1000309934FF4FA62C7
:107CC0004FF00003DDE908010CF0CCFA02460B4648
:107CD000134600221946204608F06EFA119025E15D
:107CE0000020FFF78FFD0346002B0CD00020FFF78C
:107CF000D1FD9DF83F30052B01D1C82301E04FF4A1
:107D00007A6310930BE00020FFF7AAFD9DF83F3047
:107D1000052B01D1C82301E04FF4C87310932B4AFF
:107D20009DF83F301370284C109B002298469146D6
:107D30004FF000024FF000034FEAC93343EA5843C3
:107D40004FEAC83212F57A710A9143F100030B939E
:107D50004FF4FA624FF00003DDE90A010CF082FAF9
:107D600002460B46134600221946204608F024FA24
:107D70001190DBE00020FFF7CDFD144A9DF83F3065
:107D80001370114B002240F26661184608F014FA95
:107D90001190CBE00020FFF763FD0C4A9DF83F30C7
:107DA0001370C3E0074B01221A700120FFF7B2FDE8
:107DB000054B002240F26661184608F0FDF911906B
:107DC000B4E000BFF9330020082B0020F833002076
:107DD000594B01221A700120FFF79CFD574B0022DE
:107DE0004FF40051184608F0E7F911909EE0524B0D
:107DF00001221A700120FFF78DFD504B002240F246
:107E00006661184608F0D8F911908FE04A4B0122BC
:107E10001A700120FFF77EFD484B00224FF40051FD
:107E2000184608F0C9F9119080E0FFF760FD444A58
:107E30009DF83F30137079E0424B184608F014FA71
:107E400011909DF83F30C3F111031093109B002B4C
:107E500035D0119B002B32D1109B012B28D9394CE6
:107E6000109B9BB21A46C82302FB03F3DA171E4687
:107E700017464FF000024FF00003FB0343EA56435E
:107E8000F20312F57A710C9143F100030D934FF454
:107E9000FA624FF00003DDE90C010CF0E3F9024651
:107EA0000B46134600221946204608F085F911902A
:107EB0000220FFF7D5FC244B01221A7036E0022085
:107EC000FFF7E8FC204B00221A702FE0FFF7B8FD07
:107ED0001B4A9DF83F30137028E0FFF7B1FD0020EA
:107EE000FFF7BEFC164A9DF83F3013701EE0FFF707
:107EF000A7FD0120FFF7B4FC114A9DF83F30137035
:107F000014E0FFF79DFD0020FFF7AAFC0120FFF71A
:107F1000A7FC0B4A9DF83F30137007E0FFF7E7FC22
:107F2000074A9DF83F30137000E000BF119B1846D0
:107F300012B0BDE8D08F00BFF9330020082B00201D
:107F4000F8330020282B00200034002000B585B035
:107F500003468DF8073000230393084B1B6803F09A
:107F60000103002B05D09DF807301846FFF786FD6A
:107F70000390039B184605B05DF804FBFC3300201A
:107F800084B001900B468DF8033013468DF8023013
:107F900000230393019B032B3CD89DF80230012B57
:107FA0000BD19DF80330012B04D1019BDBB20E33C2
:107FB000DBB200E000238DF802309DF80330022B85
:107FC0000FD0022B23DC002B16D0012B1FD114491C
:107FD000019A13465B0013440B449DF802201A706B
:107FE0001AE00F49019A13465B0013440B44013316
:107FF0009DF802201A700FE00949019A13465B00B0
:1080000013440B4402339DF802201A7004E0072346
:10801000039301E007230393039B184604B07047C2
:108020000434002000B585B001900B468DF8033074
:10803000019B032B14D89DF80330002B01D00323A0
:1080400000E000238DF80F300198FFF77DFC024619
:108050009DF80F3019461046FFF7A4FC002300E0FE
:108060000623184605B05DF804FB00B583B0019007
:1080700001210198FFF7D6FF0346184603B05DF8CB
:1080800004FB00B583B0012200210020FFF778FF38
:108090000190019B002B04D0019B072B01D0019B79
:1080A0001CE0072202210120FFF76AFF0190019BDB
:1080B000002B04D0019B072B01D0019B0EE0042272
:1080C00002210020FFF75CFF0190019B002B04D0F0
:1080D000019B072B01D0019B00E00023184603B051
:1080E0005DF804FB00B583B0012202210020FFF7F8
:1080F00047FF0190019B002B04D0019B072B01D06F
:10810000019B1CE0072202210120FFF739FF0190AB
:10811000019B002B04D0019B072B01D0019B0EE09B
:108120000A2200210020FFF72BFF0190019B002B6A
:1081300004D0019B072B01D0019B00E000231846CF
:1081400003B05DF804FB00B583B00020FFF78DFF9E
:108150000190019B002B04D0019B062B01D0019BB9
:108160000CE00120FFF781FF0190019B002B04D060
:10817000019B062B01D0019B00E00023184603B0B1
:108180005DF804FB00B585B001900091019B1B8850
:10819000102B02D0112B18D02FE01A4B1B68002B8C
:1081A0000DD1FFF76EFF0390039B002B07D0164BFA
:1081B0001B68002B03D0144B1B6803989847114B86
:1081C0001B6801330F4A136017E00E4B1B68013B1D
:1081D0000C4A13600B4B1B68002B0DD1FFF782FF7D
:1081E0000390039B002B07D0074B1B68002B03D089
:1081F000054B1B680398984700BF00BF05B05DF8AA
:1082000004FB00BF1434002010340020BFF34F8F54
:1082100000BF064BDB6803F4E0620449044B1343E0
:10822000CB60BFF34F8F00BF00BFFDE700ED00E064
:108230000400FA0582B01D4B1B68B3F1FF3F0AD161
:108240001B4B1B68DBB201931A4B1B681B0903F025
:108250000F03009305E0154B1B680193164B1B6839
:108260000093019B062B1DD1009B033B042B17D8C9
:1082700001A252F823F000BF8D8202009182020019
:1082800095820200998202009D82020001230AE089
:10829000012308E0012306E0012304E0012302E0BA
:1082A000012300E00023184602B07047300100109F
:1082B000E00F00F0E80F00F03401001082B0174B1F
:1082C0001B68DBB20193164B1B681B0903F00F03FD
:1082D0000093019B062B1DD1009B033B042B17D859
:1082E00001A252F823F000BFFD82020001830200C8
:1082F00005830200098302000D83020001230AE0C6
:10830000002308E0002306E0002304E0002302E04D
:10831000002300E00023184602B07047E00F00F091
:10832000E80F00F082B01D4B1B68B3F1FF3F0AD18C
:108330001B4B1B68DBB201931A4B1B681B0903F034
:108340000F03009305E0154B1B680193164B1B6848
:108350000093019B062B1DD1009B033B042B17D8D8
:1083600001A252F823F000BF7D8302008183020046
:1083700085830200898302008D83020001230AE0C5
:10838000012308E0012306E0012304E0012302E0C9
:10839000012300E00023184602B0704730010010AE
:1083A000E00F00F0E80F00F03401001082B0174B2E
:1083B0001B68DBB20193164B1B681B0903F00F030C
:1083C0000093019B062B1DD1009B033B042B17D868
:1083D00001A252F823F000BFED830200F1830200F6
:1083E000F5830200F9830200FD83020001230AE005
:1083F000002308E0002306E0002304E0002302E05D
:10840000002300E00023184602B07047E00F00F0A0
:10841000E80F00F082B01D4B1B68B3F1FF3F0AD19B
:108420001B4B1B68DBB201931A4B1B681B0903F043
:108430000F03009305E0154B1B680193164B1B6857
:108440000093019B062B1DD1009B033B042B17D8E7
:1084500001A252F823F000BF6D8402007184020073
:1084600075840200798402007D84020001230AE001
:10847000012308E0012306E0012304E0012302E0D8
:10848000012300E00023184602B0704730010010BD
:10849000E00F00F0E80F00F03401001082B0174B3D
:1084A0001B68DBB20193164B1B681B0903F00F031B
:1084B0000093019B062B1DD1009B033B042B17D877
:1084C00001A252F823F000BFDD840200E184020023
:1084D000E5840200E9840200ED84020001230AE041
:1084E000002308E0002306E0002304E0002302E06C
:1084F000002300E00023184602B07047E00F00F0B0
:10850000E80F00F082B0174B1B68DBB20193164BEB
:108510001B681B0903F00F030093019B062B1DD161
:10852000009B033B042B17D801A252F823F000BF95
:1085300045850200498502004D85020051850200F3
:108540005585020001230AE0002308E0002306E02D
:10855000002304E0002302E0002300E0002318468B
:1085600002B07047E00F00F0E80F00F082B01D4B42
:108570001B68B3F1FF3F0AD11B4B1B68DBB20193B1
:108580001A4B1B681B0903F00F03009305E0154B02
:108590001B680193164B1B680093019B062B1DD192
:1085A000009B033B042B17D801A252F823F000BF15
:1085B000C5850200C9850200CD850200D185020073
:1085C000D585020000230AE0002308E0012306E02D
:1085D000012304E0012302E0012300E00023184608
:1085E00002B0704730010010E00F00F0E80F00F01B
:1085F0003401001082B01D4B1B68B3F1FF3F0AD15C
:108600001B4B1B68DBB201931A4B1B681B0903F061
:108610000F03009305E0154B1B680193164B1B6875
:108620000093019B062B1DD1009B033B042B17D805
:1086300001A252F823F000BF4D86020051860200CD
:1086400055860200598602005D86020001230AE079
:10865000012308E0012306E0012304E0012302E0F6
:10866000012300E00023184602B0704730010010DB
:10867000E00F00F0E80F00F03401001082B01D4B55
:108680001B68B3F1FF3F0AD11B4B1B68DBB20193A0
:108690001A4B1B681B0903F00F03009305E0154BF1
:1086A0001B680193164B1B680093019B062B1DD181
:1086B000009B033B042B17D801A252F823F000BF04
:1086C000D5860200D9860200DD860200E18602001E
:1086D000E586020001230AE0012308E0012306E009
:1086E000012304E0012302E0012300E000231846F7
:1086F00002B0704730010010E00F00F0E80F00F00A
:108700003401001082B0154B1B680193144B1B6899
:108710000093019B062B1DD1009B033B042B17D814
:1087200001A252F823F000BF3D87020041870200FA
:1087300045870200498702004D87020000230AE0B6
:10874000002308E0002306E0012304E0012302E007
:10875000012300E00023184602B0704730010010EA
:108760003401001082B0154B1B680193144B1B6839
:108770000093019B062B1DD1009B033B042B17D8B4
:1087800001A252F823F000BF9D870200A1870200DA
:10879000A5870200A9870200AD87020000230AE036
:1087A000002308E0002306E0002304E0012302E0A8
:1087B000012300E00023184602B07047300100108A
:1087C0003401001008B5FFF7CDFF0346002B07D09A
:1087D0004FF010234FF08042D3F80832C2F85835DA
:1087E00000BF08BD00BF044BD3F80034002BFAD003
:1087F00000BF00BF704700BF00E0014000B583B07C
:108800000190054A019BC2F80435FFF7EBFF00BF5A
:1088100003B05DF804FB00BF00E00140024B034AD7
:108820001A6000BF704700BF482B00200090D003A3
:1088300008B5FFF7FFFC0346002B06D0964B1B68DC
:108840001B0A964A03F01F031360FFF737FD034628
:10885000002B02D0924B934A1A60FFF763FD034648
:10886000002B06D0904B1B685B0B904A03F007036C
:108870001360FFF79BFD0346002B05D08C4BDB6894
:108880008B4A23F08073D360FFF7C4FD0346002BAF
:108890000ED04FF080430022C3F80C214FF08043EC
:1088A0000022C3F810214FF080430022C3F838257E
:1088B000FFF7F4FD0346002B02D07E4B03221A6023
:1088C000FFF720FE0346002B0BD07B4B05221A60DE
:1088D0007A4B01221A607A4B00221A60794B3F22B0
:1088E0001A60FFF743FE0346002B76D04FF080530B
:1088F000754AD3F80434C2F820354FF08053724AD9
:10890000D3F80834C2F824354FF080536E4AD3F8B8
:108910000C34C2F828354FF080536B4AD3F810342A
:10892000C2F82C354FF08053674AD3F81434C2F89C
:1089300030354FF08053644AD3F81834C2F83435D8
:108940004FF08053604AD3F81C34C2F840354FF0E2
:1089500080535D4AD3F82034C2F844354FF0805339
:10896000594AD3F82434C2F848354FF08053564A58
:10897000D3F82834C2F84C354FF08053524AD3F81C
:108980002C34C2F850354FF080534F4AD3F830346E
:10899000C2F854354FF080534B4AD3F83434C2F800
:1089A00060354FF08053484AD3F83834C2F8643504
:1089B0004FF08053444AD3F83C34C2F868354FF046
:1089C0008053414AD3F84034C2F86C354FF080539D
:1089D0003D4AD3F84434C2F87035FFF70BFE034626
:1089E000002B05D0394B1B68394A03F04F03136045
:1089F000FFF744FE0346002B0DD04FF08043D3F821
:108A0000003403F00103002B05D04FF080436FF0DA
:108A10000102C3F80024FFF775FE0346002B05D0C2
:108A20002C4B1B682B4A43F4806313602A4BD3F80A
:108A30008830294A43F47003C2F88830BFF34F8F5F
:108A400000BFBFF36F8F00BFFFF7BCFE4FF01023D6
:108A5000D3F80032002B05DB4FF01023D3F804329B
:108A6000002B15DA0120FFF7C9FE4FF01023152265
:108A7000C3F80022FFF7B6FE4FF010231522C3F80B
:108A80000422FFF7AFFE0020FFF7B8FEFFF7BEFBA2
:108A9000FFF7C4FE00BF08BD2403001040350140AD
:108AA00074C007400DF0ADBA440200103C05004010
:108AB000F0ED00E0A0050040105600408856004050
:108AC000185600401456004000C0004058020010E4
:108AD000E40E00403C17004000ED00E06DDF704701
:108AE00000BF184679DF704700BF18467DDF70472A
:108AF00000BF184664DF704700BF184682B00346C7
:108B00000091ADF80630BDF80630DAB2009B1A705D
:108B1000BDF806301B0A9AB2009B0133D2B21A701C
:108B20000223184602B0704700B589B00390029145
:108B30001346ADF80630029B1B8803F10902BDF80D
:108B400006309A4201D90C2353E004AB1846FFF7D4
:108B5000C5FF0790079B0693069B002B01D0069B41
:108B600047E0029B1B881A46039B134408221A7095
:108B7000029B1B8801339AB2029B1A80029B1B88BE
:108B80001A46039B13441B221A70029B1B88013355
:108B90009AB2029B1A80029B1B881A46039B981864
:108BA00004AB0133062219460BF0D4FC029B1B8850
:108BB00006339AB2029B1A809DF8103023F001030D
:108BC000DBB2002B07D1029B1B881A46039B134480
:108BD00000221A7006E0029B1B881A46039B13446E
:108BE00001221A70029B1B8801339AB2029B1A80E1
:108BF0000023184609B05DF804FB00B589B0039066
:108C000002910192ADF80230039B1B78012B05D134
:108C1000039B5B78002B01D1072392E0019B1B880B
:108C20009A1CBDF802309A420ED8039B1B78012B88
:108C30000CD1019B1B881A46039B5B7813449A1C3A
:108C4000BDF802309A4201D90C237AE0019B1B88BF
:108C5000BDF80220D31A9BB2023BADF81C30BDF820
:108C60001C30ADF81230019B1B880233029A13446A
:108C70000DF1120211461846FFF738FF0690069BC9
:108C80000593059B002B01D0059B5AE0039B1B78A5
:108C9000022B06D0039B5B789AB2BDF812309A4241
:108CA00009D3BDF81230BDF81C209A4203D3092322
:108CB0008DF81F3017E008238DF81F30039B1B78B9
:108CC000012B0CD1039B5B789BB2BDF81C209A4210
:108CD00005D3039B5B789BB2ADF8123003E0BDF87F
:108CE0001C30ADF81230BDF81230FE2B01D90C2328
:108CF00027E0BDF81230DAB2019B1B881946029BAF
:108D00000B440132D2B21A70019B1B8801339AB214
:108D1000019B1A80019B1B881A46029B13449DF8F5
:108D20001F201A70019B1B8801339AB2019B1A8085
:108D3000019B1A88BDF8123013449AB2019B1A8025
:108D40000023184609B05DF804FB00B589B0039014
:108D500002911346ADF80630029B1B881A1DBDF820
:108D600006309A4201D90C233BE00DF11603184658
:108D7000FFF7B8FE0790079B0693069B002B01D0D8
:108D8000069B2EE0029B1B881A46039B134403227A
:108D90001A70029B1B8801339AB2029B1A80029BB5
:108DA0001B881A46039B134419221A70029B1B88C6
:108DB00001339AB2029B1A80BDF81620029B1B88D1
:108DC0001946039B0B4419461046FFF797FE0346CE
:108DD0001946029B1A888BB213449AB2029B1A80DE
:108DE0000023184609B05DF804FB84B0029101929B
:108DF0001A4603468DF80F301346ADF80C30019B30
:108E00001B88DA1CBDF80C309A4201D90C2328E0EB
:108E1000019B1B881A46029B134402221A70019B75
:108E20001B8801339AB2019B1A80019B1B881A464A
:108E3000029B134401221A70019B1B8801339AB2D2
:108E4000019B1A80019B1B881A46029B13449DF8C4
:108E50000F201A70019B1B8801339AB2019B1A8064
:108E60000023184604B0704784B0029101921A465C
:108E700003468DF80F301346ADF80C30019B1B886C
:108E8000DA1CBDF80C309A4201D90C2328E0019B72
:108E90001B881A46029B134402221A70019B1B88EE
:108EA00001339AB2019B1A80019B1B881A46029BD0
:108EB00013440A221A70019B1B8801339AB2019B4A
:108EC0001A80019B1B881A46029B13449DF80F20B1
:108ED0001A70019B1B8801339AB2019B1A800023F0
:108EE000184604B0704700B58FB0039001930B464D
:108EF0008DF80B3013468DF80A3000238DF833308F
:108F0000109B1B88ADF8303000230D9371E0039B5C
:108F10005A680D9B9B001A4405AB106818600DF150
:108F20001B0105AB00221846FFF7E4FD0A900A9BDF
:108F30000993099B002B01D0099B7CE09DF81B3015
:108F40009DF80A209A4251D19DF83330002B01D070
:108F5000002300E002238DF82330109B1B881A4663
:108F60009DF81B301A449DF823301A44BDF8443054
:108F70009A4201DD0C235EE09DF8333083F001035B
:108F8000DBB2002B16D0109B1B8801339AB2109BCA
:108F90001A80109B1B881A46019B13449DF80B20D6
:108FA0001A70109B1B8801339AB2109B1A80012300
:108FB0008DF83330109B1B881A46019B1A440DF123
:108FC0001B0105AB1846FFF795FD0A900A9B079316
:108FD000079B002B01D0079B2DE0109B1A889DF862
:108FE0001B309BB213449AB2109B1A800D9B013325
:108FF0000D93039B1B881A460D9B934287DB9DF8BC
:109000003330002B16D0109B1A88BDF83030D31A9D
:109010009BB2013BADF82E30BDF82E30FF2B01D9AD
:109020000C2308E0BDF83030019A1344BDF82E201F
:10903000D2B21A70002318460FB05DF804FB00B5D9
:109040008BB0059003930B468DF8133013468DF8C3
:1090500012309DF81310BDF8343001930C9B00932F
:10906000039B02220598FFF73EFF0990099B089396
:10907000089B002B01D0089B14E09DF81210BDF84E
:10908000343001930C9B0093039B10220598FFF74B
:109090002AFF0990099B0793079B002B01D0079B90
:1090A00000E0002318460BB05DF804FB82B001908D
:1090B000019B1B88052B0AD9019B1B88B3F5486FC0
:1090C00007D9019B1B884FF6FF72934201D00723FB
:1090D00025E0019B5B88052B0AD9019B5B88B3F5D2
:1090E000486F07D9019B5B884FF6FF72934201D00E
:1090F000072314E0019B1B884FF6FF7293420DD0AB
:10910000019B5B884FF6FF72934207D0019B1A8840
:10911000019B5B889A4201D9072300E0002318468F
:1091200002B0704700B587B0039002910192ADF88C
:109130000230019B1B889A1DBDF802309A4201D96A
:109140000C234DE00398FFF7B1FF0590059B0493B6
:10915000049B002B01D0049B42E0019B1B881A4614
:10916000029B134405221A70019B1B8801339AB29B
:10917000019B1A80019B1B881A46029B13441222F2
:109180001A70019B1B8801339AB2019B1A80039BC2
:109190001A88019B1B881946029B0B4419461046EE
:1091A000FFF7ACFC03461946019B1A888BB21344A7
:1091B0009AB2019B1A80039B5A88019B1B8819460F
:1091C000029B0B4419461046FFF798FC03461946CC
:1091D000019B1A888BB213449AB2019B1A80002318
:1091E000184607B05DF804FB00B587B00390029104
:1091F0000192ADF80230039B9B8802330593019BDB
:109200001B881A46059B13449A1CBDF802309A42EB
:1092100001D90C2354E0059BFE2B01D90C234FE010
:10922000059BDAB2019B1B881946029B0B44013255
:10923000D2B21A70019B1B8801339AB2019B1A802B
:10924000019B1B881A46029B1344FF221A70019B44
:109250001B8801339AB2019B1A80039B1A88019BD9
:109260001B881946029B0B4419461046FFF746FC23
:1092700003461946019B1A888BB213449AB2019B8C
:109280001A80039B9B88002B19D0039B9B68002BA3
:1092900001D1072314E0019B1B881A46029B9818F2
:1092A000039B9968039B9B881A460BF053F9019B1B
:1092B0001A88039B9B8813449AB2019B1A8000234F
:1092C000184607B05DF804FB00B589B00390029121
:1092D0000192ADF80230039B9B6A002B01D107235A
:1092E00072E000238DF81F3066E0039B996A9DF8B9
:1092F0001F2013465B0013449B000B440693069B00
:109300009B8802330593059BFE2B01D90C235BE060
:10931000059BDAB2019B1B881946029B0B44013264
:10932000D2B21A70019B1B8801339AB2019B1A803A
:10933000019B1B881A46029B134416221A70019B3C
:109340001B8801339AB2019B1A80069B1A88019BE5
:109350001B881946029B0B4419461046FFF7CEFBAB
:1093600003461946019B1A888BB213449AB2019B9B
:109370001A80069B9B88002B19D0069B9B68002BAC
:1093800001D1072320E0019B1B881A46029B9818F5
:10939000069B9968069B9B881A460BF0DBF8019B9D
:1093A0001A88069B9B8813449AB2019B1A809DF8E9
:1093B0001F3001338DF81F30039B93F82C309DF83C
:1093C0001F209A4291D30023184609B05DF804FB90
:1093D00000B595B005900491039200231393039B6D
:1093E0001B88ADF84A30039B00221A80059B93F836
:1093F0002D30002B0ED0BDF84A301A460399049840
:10940000FFF792FB1390139B1193119B002B01D03C
:10941000119BD8E0059B9B78002B0ED0BDF84A30FD
:109420001A4603990498FFF790FC1390139B10932E
:10943000109B002B01D0109BC5E0059BDB78002B17
:1094400010D0059BDB7858B2BDF84A30039A0499D6
:10945000FFF7CBFC1390139B0F930F9B002B01D0B6
:109460000F9BB0E0059B5B68002B11D0059B5B68F0
:1094700093F90000BDF84A30039A0499FFF7F4FC11
:109480001390139B0E930E9B002B01D00E9B9AE022
:10949000059B1B89002B14D0059B03F10800BDF828
:1094A0004A300193039B0093049B06220221FFF79D
:1094B000C6FD1390139B0D930D9B002B01D00D9BAC
:1094C00081E0059B1B8A002B14D0059B03F1100043
:1094D000BDF84A300193039B0093049B07220321AC
:1094E000FFF7ADFD1390139B0C930C9B002B01D049
:1094F0000C9B68E0059B1B8B002B14D0059B03F194
:109500001800BDF84A300193039B0093049B152279
:109510001421FFF794FD1390139B0B930B9B002BCF
:1095200001D00B9B4FE0059B1B6A002B0FD0059BC6
:10953000186ABDF84A30039A0499FFF7F3FD1390B7
:10954000139B0A930A9B002B01D00A9B3BE0059BCF
:109550005B6A002B0FD0059B586ABDF84A30039A0E
:109560000499FFF741FE1390139B0993099B002B6D
:1095700001D0099B27E0059B93F82C30002B0ED0DF
:10958000BDF84A30039A04990598FFF79DFE1390A1
:10959000139B0893089B002B01D0089B13E0059BAD
:1095A0001B78002B0ED0BDF84A30039A0499059819
:1095B000FFF723FB1390139B0793079B002B01D00E
:1095C000079B00E0139B184615B05DF804FB86B0BE
:1095D000039001921A460B46ADF80A3013468DF8F7
:1095E0000930039B002B02D0019B002B01D10023EB
:1095F0005CE00023ADF816300CE0BDF81630039A9D
:1096000013441B789AB2BDF8163013449BB2013351
:10961000ADF81630BDF816305A1CBDF80A309A4223
:109620000FDA019B1B88BDF816209A42E5D3BDF8DE
:1096300016300133039A13441B789DF809209A428F
:10964000DBD1BDF81620BDF80A309A4201D30023C1
:109650002CE0BDF816300233ADF81430BDF81630EA
:10966000039A13441B78002B08D0BDF81630039AD8
:1096700013441B789BB2013B9BB200E00023ADF882
:109680001230BDF81230002B08D0BDF81420BDF800
:1096900012301A44BDF80A309A4201DD002305E079
:1096A000019BBDF814201A80BDF81230184606B090
:1096B000704700B585B001900B46ADF802301346F7
:1096C0008DF801300023ADF80C309DF8013003AA6D
:1096D000BDF802100198FFF77AFF0346ADF80E308F
:1096E000BDF80E30002B01D1002304E0BDF80C3092
:1096F0001A46019B1344184605B05DF804FB72DF5F
:10970000704700BF184673DF704700BF184682B02D
:109710000190019B93F83034184602B0704784B032
:109720000190002303930AE0019A039B13441B78E2
:10973000002B01D0012306E0039B01330393039B1D
:10974000052BF1D90023184604B0704782B00346B8
:109750008DF807309DF807305A1C074B83FB021326
:109760005910D317C91A0B469B000B44D11ACBB220
:10977000184602B0704700BF6766666682B0019007
:109780000091009BDB7B012B04D1009B9A88019BFD
:10979000A3F8242400BF02B0704700B585B0019043
:1097A0000091019B002283F82E24009B9A88019B44
:1097B000B3F824349A4216D1019B1B7983F001033C
:1097C000DBB2002B0FD00121019800F0B1FA039019
:1097D000039B002B07D0019B9B6B002B03D0019BAD
:1097E0009B6B0398984700BF05B05DF804FB00B57C
:1097F00085B001900091009B1B88262B1ED1009BF9
:109800001B7A012B03D0009B1B7A022B17D1019BE3
:109810009B781846FFF79AFF03461946019800F017
:1098200087FA0390039B002B09D0019B9B6B002BB5
:1098300005D0019B9B6B0398984700E000BF05B0E3
:109840005DF804FB00B585B001900B468DF8033040
:10985000019B03F227431846FFF761FF03468DF88B
:109860000F309DF80330013B032B33D801A252F88F
:1098700023F000BF85980200A9980200BD9802005D
:10988000C9980200019B9B79002B0DD0019B93F896
:10989000243083F00103DBB2002B05D09DF80F309C
:1098A000002B01D0012316E0019BDB79002B05D0B2
:1098B0009DF80F30002B01D002230CE0019B1B7A96
:1098C000002B01D0032306E0019B5B7A002B01D023
:1098D000042300E00023184605B05DF804FB00BF38
:1098E00082B001900091019B012283F83120019BFD
:1098F0000022C3F82024019B03F22642009B5A60F9
:10990000009B00229A60009B02221A70009B80221A
:109910009A810023184602B0704782B001900091EE
:10992000019B022283F83120019B93F82430002B05
:1099300003D0009B07221A7002E0009B03221A70DA
:10994000019B1B699AB2009B9A81019B0022C3F87C
:109950002024019B03F22642009B5A60019BDA6897
:10996000009B9A600023184602B0704700B583B090
:109970000190019B5B79002B0FD0019B93F82E3453
:1099800083F00103DBB2002B07D00198FFF7BFFE85
:109990000346002B01D0012300E0002303F0010364
:1099A000DBB2184603B05DF804FB00B585B001904A
:1099B0000B468DF80330019BD3F81004019BB3F8DC
:1099C000143401221946FFF774FE0390039B002B09
:1099D00003D0039B9DF803201A70019B03F15400F0
:1099E000019B03F58261019B3C331A46FFF787FE1A
:1099F0000346184605B05DF804FB00B585B001903C
:109A00000091019B5A69009B9A60019B9B699AB2E5
:109A1000009B9A81019B93F82430002B04D0019B7A
:109A2000062283F83C2003E0019B012283F83C20BE
:109A30000198FFF79BFF0346002B13D0009B0222E7
:109A40001A7504210198FFF7B0FF0390039B02935E
:109A5000029B002B01D0029B0FE0019B052283F8A3
:109A6000312003E0019B032283F83120019B03F5A1
:109A70008262019BC3F820240023184605B05DF8DC
:109A800004FB00B585B001900091019BDA69009B51
:109A90009A60019B1B6A9AB2009B9A81019B93F882
:109AA0002430002B04D0019B062283F83C2003E0E5
:109AB000019B012283F83C200198FFF757FF0346E2
:109AC000002B13D0009B02221A7504210198FFF786
:109AD0006CFF0390039B0293029B002B01D0029B1F
:109AE0000FE0019B062283F8312003E0019B042252
:109AF00083F83120019B03F58262019BC3F8202487
:109B00000023184605B05DF804FB82B00190019B6C
:109B10009B78002B06D0019B93F82030002B01D0BE
:109B200000230AE0019B9B6A042B03D0019B5B6A24
:109B3000042B01D1002300E00123184602B0704736
:109B400084B00190019B93F82430002B03D0EE23C6
:109B5000ADF80E3002E01F23ADF80E30BDF80E3028
:109B6000184604B0704782B001900B468DF8033060
:109B7000019B9DF8032083F8302000BF02B070479E
:109B800030B587B001900091009B002B02D0019B63
:109B9000002B01D10E23B8E0009B78331846FFF765
:109BA000B4FF034683F00103DBB2002B01D007238F
:109BB000ABE0019B00229A70019A009B141D03F1F7
:109BC00078050FCD0FC40FCD0FC495E8070084E8CA
:109BD0000700019B002283F83020009BD3F8A420CB
:109BE000019B5A63009BD3F8A820019B9A63019BB9
:109BF0004FF6FF72A3F82424019B03F58262019BB8
:109C0000C3F82024019B03F22643072200211846B3
:109C10000AF0C9FC019B1B7883F00103DBB2002B27
:109C200003D0019BFF2283F85420019B03F15502CE
:109C3000019BC3F810240198FFF782FF03461A46E0
:109C4000019BA3F814240098019B03F15501019B8B
:109C500003F214431A46FFF7BBFB0590059B0493E0
:109C6000049B002B01D0049B4FE0019B03F23122A7
:109C7000019BC3F818240198FFF762FF03461A46B8
:109C8000019BA3F81C24009B03F13C00019BD3F82B
:109C90001814019B03F21C431A46FFF799FB059029
:109CA000059B0393039B002B01D0039B2DE0019B9D
:109CB000012283F85120019B9B699AB2019BA3F872
:109CC0004820019B012283F83C20019B00221A645A
:109CD000019B002283F85020019B5A69019B5A6422
:109CE000019B03F15400019B3C331A460021FFF70E
:109CF00006FD0590059B0293029B002B01D0029B61
:109D000003E0019B01221A70059B184607B030BD85
:109D100082B00190019B1B68012B03D0019B1B6843
:109D2000022B01D1012300E00023184602B0704746
:109D300000B585B001900B468DF80330019B1B7870
:109D400083F00103DBB2002B01D0082309E1019B62
:109D50009DF803209A70019B03F2264307220021FD
:109D600018460AF020FC019B9B79002B03D0019B35
:109D70009B78012B0FD0019BDB79002B03D0019B3B
:109D80009B78012B07D0019BDB79002B14D0019B22
:109D90009B78022B10D1019B5B6B002B08D0019BA1
:109DA000012283F82D24019B5B6B0820984703E078
:109DB000019B002283F82D249DF803301946019859
:109DC000FFF740FD03461A46019B9A70019B5B6BAF
:109DD000002B20D0019B9B78032B03D0019B9B7809
:109DE000042B18D1019B5B79002B14D0019B93F8B5
:109DF0002E3483F00103DBB2002B0CD0019B002238
:109E000083F83024019B012283F82F24019B5B6B94
:109E10000720984703E0019B002283F82F24019B31
:109E20003C331822002118460AF0BDFB019B012299
:109E300083F83C20019B2C331846FFF769FF03464B
:109E4000002B06D0019BDB6ADAB2019B83F851201C
:109E500003E0019B012283F85120019B93F82430F9
:109E6000002B12D0019B28331846FFF751FF034601
:109E7000002B06D0019B9B6ADAB2019B83F852202B
:109E800003E0019B012283F85220019B002283F80A
:109E90005020019B9B78042B31D801A252F823F06B
:109EA000F59E0200B59E0200C59E0200D59E0200EE
:109EB000E59E0200019B3C3319460198FFF710FD17
:109EC00003901DE0019B3C3319460198FFF725FDE7
:109ED000039015E0019B3C3319460198FFF78DFD77
:109EE00003900DE0019B3C3319460198FFF7C9FD33
:109EF000039005E0019B002283F8312000E000BFC1
:109F0000019B9B78002B20D0019B03F15400019B07
:109F1000D3F82014019B3C331A46FFF7F0FB039063
:109F2000039B002B01D0039B1BE0019B93F8542063
:109F3000019B93F8303019461046FFF7E4FB03907D
:109F4000039B002B01D0039B0BE0019B5B6B002B61
:109F500006D0019B5B6B019A92F83120104698471E
:109F60000023184605B05DF804FB00BF00B585B0BE
:109F700001900091009B0393019B1B88262B10D01E
:109F8000262B13DC102B02D0112B05D00EE00199EB
:109F90000398FFF7F3FB0AE001990398FFF7FDFB35
:109FA00005E001990398FFF722FC00E000BF00BF25
:109FB00005B05DF804FB75DF704700BF184676DF1B
:109FC000704700BF18467ADF704700BF18467BDF36
:109FD000704700BF1846000084B00346ADF8063055
:109FE0000023039316E00F49039A13469B00134482
:109FF0009B000B441B88BDF806209A4207D1039AA8
:10A0000013469B0013449B00064A134406E0039B3F
:10A0100001330393039B002BE5D00023184604B0C3
:10A02000704700BF3834002082B001900B46ADF875
:10A030000230019BBDF802201A80019B00221A7297
:10A04000019B054903F10A020B4603CB10605160E6
:10A0500000BF02B0704700BF6834002082B001909A
:10A06000019B4FF6FF721A8000BF02B0704788B0A4
:10A070000390029111461A460B46ADF8063013467E
:10A08000ADF80430039B9B881A46BDF80630134494
:10A090000793039B9B881946039B9B88BDF806206A
:10A0A000934228BF13469BB2CB1A0693039BDB88CF
:10A0B0001A46BDF8043013440593039BDB88194608
:10A0C000039BDB88BDF80420934228BF13469BB254
:10A0D000CB1A0493029B5A88039B1B889A4205D390
:10A0E000029B5A88039B5B889A4201D900231CE09B
:10A0F000029B9B881A46069B934205D8029B9B882D
:10A100001A46079B934201D200230EE0029BDB8894
:10A110001A46049B934205D8029BDB881A46059B8E
:10A12000934201D2002300E00123184608B0704793
:10A1300000B583B00190064B9B69002B03D0044B04
:10A140009B690198984700BF03B05DF804FB00BF0E
:10A150004C34002000B585B003460091ADF80630C0
:10A16000BDF8063000991846FFF725FF0390039BC2
:10A17000002B05D0039B112B02D00398FFF7D8FFCB
:10A18000039B002B0CBF01230023DBB2184605B054
:10A190005DF804FB00B589B00190019B0793079B14
:10A1A0009BB21846FFF718FF0690069B002B42D083
:10A1B000069B1A7A224B1B7B9A4215D2079B9AB2B6
:10A1C000069B0A3319461046FFF7C4FF03468DF875
:10A1D00013309DF81330002B2DD0069B1B7A0133D2
:10A1E000DAB2069B1A7226E0069B00221A72144B02
:10A1F0001B7C002B0FD0079B9BB23B211846FFF71F
:10A20000DEFE0590059B002B05D0059B082B02D098
:10A210000598FFF78DFF0A4B5B69002B0BD00023DD
:10A220008DF80C30079B9BB2ADF80E30044B5B6988
:10A2300003AA1046984700BF09B05DF804FB00BFB1
:10A240004C34002030B587B00190019B002B01D128
:10A250000E2353E02B4A019B14461D460FCD0FC41D
:10A2600095E8070084E80700264B274A1A60019BFF
:10A270001B68002B11D0019B1B681846FFF7A3FE3B
:10A280000490049B002B01D0049B37E0019B1A68CB
:10A290001D4B1068516803C308E01B48FFF797FE89
:10A2A0000490049B002B01D0049B27E0002305931E
:10A2B00020E0059A13469B0013449B00134A134465
:10A2C00003930398FFF7CAFE059B5B01104A1A44EB
:10A2D000039B5A60039B04330E4A0021184605F085
:10A2E00031FF0490049B002B01D0032306E0059B63
:10A2F00001330593059B002BDBD00023184607B0E4
:10A3000030BD00BF4C3400206834002038340020B9
:10A310001834002095A1020000B587B003460091D3
:10A32000ADF80630009B5B7A002B1AD1009B1B7A9C
:10A33000002B03D1164B5B68059302E0144B9B681E
:10A340000593009B5B68BDF806200599184605F04B
:10A3500033FF0490049B002B16D00498FFF7E8FE0F
:10A3600012E0009B00221A72094B5B69002B0BD094
:10A3700001238DF80C30BDF80630ADF80E30044BDB
:10A380005B6903AA1046984700BF07B05DF804FB5D
:10A390004C34002000B585B00190019BDB7B8DF82B
:10A3A0000F30019B9B88ADF80C309DF80F30012BCE
:10A3B0002CD14FF6FF70FFF70FFE0290029B002B8F
:10A3C00003D10420FFF7B4FE21E0BDF80C3019469C
:10A3D0000298FFF729FE029B03F10A00019B03F19B
:10A3E00010014FF6FF7340F2F312FFF740FE0346F1
:10A3F0001A46029B5A72074BDB89002B07D1BDF826
:10A400000C3002991846FFF787FF00E000BF05B047
:10A410005DF804FB4C34002000B587B00190019B2F
:10A420009B88ADF81630BDF816301846FFF7D4FDFE
:10A430000490049B002B0ED0049B5B68184605F02B
:10A4400013FF0390039B002B02D00398FFF770FECD
:10A450000498FFF703FE00BF07B05DF804FB00009F
:10A4600000B587B00190019B06330593059B1A88C0
:10A47000194BDB899A422BD1059B5B89022B27D193
:10A48000019B9B88ADF81230BDF812301846FFF7DB
:10A49000A3FD0390039B002B1AD0059B0C33184699
:10A4A00000F074FA0346002B06D0BDF81230039971
:10A4B0001846FFF731FF0BE0039B5B68184605F079
:10A4C000D3FE0290029B002B02D00298FFF730FED1
:10A4D00000BF07B05DF804FB4C34002000B585B028
:10A4E0000190019B9B88ADF80E30BDF80E301846E8
:10A4F000FFF772FD0290029B002B15D0029B03F127
:10A500000A00019B03F108014FF6FF7340F2F312BA
:10A51000FFF7ADFD03461A46029B5A72BDF80E3096
:10A5200002991846FFF7F8FE00BF05B05DF804FB7E
:10A5300000B583B001900091019B1B88502B12D075
:10A54000502B18DC122B12D0122B14DC102B02D043
:10A55000112B04D00FE00198FFF71CFF0CE00198CD
:10A56000FFF75AFF08E00198FFF77AFF04E001982F
:10A57000FFF7B4FF00E000BF00BF03B05DF804FBCD
:10A5800030B58FB00190009100230293009B002B07
:10A590001AD000230D9314E06B460D99184606F06F
:10A5A000C0FE0346002B09D0029B5A1C02920D9A52
:10A5B00092B25B0038336B4423F82C2C0D9B013393
:10A5C0000D930D9B132BE7D9019B1D4602AC0FCCBD
:10A5D0000FC50FCC0FC594E8070085E80700019868
:10A5E0000FB030BD00B583B00346ADF80630BDF8FE
:10A5F0000630132B01D900230CE0BDF806301946B4
:10A60000064806F05DFEBDF806301946044806F01F
:10A6100057FE0123184603B05DF804FB7834002090
:10A620007434002000B585B00346ADF80630002331
:10A6300003930DE0039B9B00094A13440433BDF8C8
:10A6400006201146184606F053FE039B0133039380
:10A65000039B1D2BEED900BF00BF05B05DF804FBC6
:10A660007034002000B583B00346ADF80630BDF865
:10A6700006301946034806F03BFE00BF03B05DF804
:10A6800004FB00BF7834002030B59BB0184B9B68AA
:10A69000DB431893164B5A6818AB1146184606F060
:10A6A0009FFE189A6B4611461846FFF769FF0DACDE
:10A6B0006D460FCD0FC40FCD0FC495E8070084E899
:10A6C0000700002319930BE0199B5B0068336B4470
:10A6D00033F8303C1846FFF7A5FF199B0133199357
:10A6E0000D9B199A9A42EFD300BF00BF1BB030BD3B
:10A6F0007034002000B583B001900B46ADF80230F5
:10A7000013468DF801309DF80130002B06D0BDF8BE
:10A7100002301946019806F0D3FD05E0BDF802307D
:10A720001946019806F0E4FD00BF03B05DF804FB94
:10A7300000B585B001900091019B9B88ADF80E306B
:10A74000019B1B88103B0A2B00F2888001A252F863
:10A7500023F000BF81A70200BDA702005DA8020090
:10A760005DA802005DA802005DA802005DA80200CD
:10A770005DA802005DA8020027A80200C9A7020088
:10A78000FFF782FFBDF80E301846FFF72BFF034698
:10A7900083F00103DBB2002B05D0324AF021042004
:10A7A00005F036F857E0019BDB7B022B53D1BDF857
:10A7B0000E3019462C4806F083FD4CE0BDF80E30F3
:10A7C0001846FFF74FFF49E0019B1B7AC3F30313C1
:10A7D000DBB28DF80D309DF80D30032B8CBF0123BB
:10A7E0000023DAB2BDF80E3019462048FFF782FF89
:10A7F0009DF80D30022B8CBF01230023DAB2BDF887
:10A800000E3019461A48FFF775FF9DF80D30012BE1
:10A810008CBF01230023DAB2BDF80E30194615486B
:10A82000FFF768FF1AE0019B1B7A002B15D1019BF3
:10A830005B7AC3F3C003DBB2002B14BF01230023F8
:10A840008DF80C309DF80C20BDF80E3019460748E5
:10A85000FFF750FF01E000BF00E000BF00BF05B000
:10A860005DF804FB845003007C3400208834002011
:10A87000843400208034002000B583B00346ADF856
:10A880000630BDF80630132B01D9002306E0BDF8D1
:10A8900006301946034806F044FD0346184603B047
:10A8A0005DF804FB7434002000B583B00346ADF8B6
:10A8B0000630BDF806301846FFF7DEFF0346002BD2
:10A8C00002D0BDF8063000E01423184603B05DF84E
:10A8D00004FB00B587B003900B460192ADF80A3037
:10A8E000019B002B01D10E2338E0019B00221A604E
:10A8F000039B002B01D10E2330E0039B1B68002B30
:10A9000001D10E232AE0039BDB8803F003039BB2F3
:10A91000002B01D0072321E0BDF80A301846FFF7CD
:10A92000C3FF03468DF817309DF81730142B01D163
:10A93000052313E0039B1B799DF817209A4201D34E
:10A9400004230BE0039B1B689DF817200399C9881B
:10A9500001FB02F21A44019B1A600023184607B05B
:10A960005DF804FB82B00190019B1B781AB2019B39
:10A9700001331B781B021BB213431BB29BB2184658
:10A9800002B07047AADF704700BF184600B585B017
:10A9900001900198FFF7E6FF0346ADF80E30BDF8D1
:10A9A0000E3003F00103002B14BF01230023DBB2A0
:10A9B000184605B05DF804FB82B0034600918DF89F
:10A9C0000730009A13786FF303031370009A13781B
:10A9D0006FF3071313709DF80730052B5BD801A2A6
:10A9E00052F823F0FDA9020013AA02002DAA0200CA
:10A9F00047AA020061AA02007BAA0200009A13780B
:10AA00006FF303031370009A13786FF30713137037
:10AA100040E0009A1378012161F303031370009A58
:10AA20001378012161F30713137033E0009A137850
:10AA3000012161F303031370009A1378022161F37B
:10AA40000713137026E0009A1378012161F30303C2
:10AA50001370009A1378032161F30713137019E040
:10AA6000009A1378022161F303031370009A13789C
:10AA7000012161F3071313700CE0009A137802218F
:10AA800061F303031370009A1378022161F3071333
:10AA9000137000BF00BF00BF02B0704700B595B093
:10AAA000034602910192ADF80E30029B9B78002B79
:10AAB00003D101238DF81E3003E0029B9B788DF8B3
:10AAC0001E30029B1B88ADF81C3006AB0322002110
:10AAD000184609F068FD029B5B7C06AA11461846E1
:10AAE000FFF76AFF029B9A7C06AB013319461046BA
:10AAF000FFF762FF029BDA7B9DF81A3062F3C30313
:10AB00008DF81A30029B1A7C9DF81A3062F30413F8
:10AB10008DF81A30029B1A7B9DF81A3062F30003FD
:10AB20008DF81A30029B1B7D002B01D0022200E021
:10AB300001229DF81A3062F342038DF81A300DABF2
:10AB40001C220021184609F02EFD029B5B7B03F0BE
:10AB50001003DBB2002B06D1029B5B7B03F02003CA
:10AB6000DBB2002B24D004AB03220021184609F0ED
:10AB70001AFD029BDA7C04AB013319461046FFF73D
:10AB80001BFF9DF81030012262F303038DF8103093
:10AB90009DF81030012262F307138DF810309DF8F4
:10ABA0001230012262F342038DF8123004AB12938B
:10ABB000029B5B7B8DF83430029B9B7B8DF835309C
:10ABC00008AB14220021184609F0EDFC07AB0893EE
:10ABD00006AB0993029B9B88ADF82C30029B9B68C7
:10ABE000002B06D0029BDB88ADF82830029B9B68C7
:10ABF0000C93029B9B69002B4FD005AB03220021D5
:10AC0000184609F0D0FC029B9B691B88ADF83C30CC
:10AC1000029B9B695B88ADF83E30029B9B695B6839
:10AC20000E9305AB1193029B9B691B7B05AA1146F2
:10AC30001846FFF7C1FE029B9B695A7B05AB0133A7
:10AC400019461046FFF7B8FE029B9B699A7A9DF859
:10AC5000163062F3C3038DF81630029B9B69DA7AD3
:10AC60009DF8163062F304138DF81630029B9B6931
:10AC70001A7A9DF8163062F300038DF81630029BA5
:10AC80009B699B7B002B01D0022200E001229DF8F2
:10AC9000163062F342038DF81630029BDB69002BFD
:10ACA00002D0029BDB69109308AA0DA9BDF80E0023
:10ACB000019BFFF767FE0346184615B05DF804FBDD
:10ACC00090DF704700BF1846A5DF704700BF1846E9
:10ACD000B5DF704700BF184682B00190019BF72294
:10ACE0001A80019B17225A80019B00221A71019B36
:10ACF00000225A71019BFB229A71019B1B22DA717F
:10AD000000BF02B07047000030B589B003460A4664
:10AD1000ADF806301346ADF80430BDF80430ADF898
:10AD20001430BDF80430ADF816300023ADF81830FB
:10AD30000023ADF81A3003AB00221A609A8003AAF0
:10AD400005A9BDF806301846FFF7BAFF0790079B24
:10AD5000002B39D01E4A1F4BD31ADB081B0443F0CB
:10AD60000104BDF80650079807F0CAFB03462A46BF
:10AD70001949204608F0A9F8BDF80C30002B03D182
:10AD8000BDF80E30002B0ED0114A124BD31ADB083F
:10AD90001B0443F00100BDF80C301A46BDF80E301C
:10ADA0000E4908F092F8BDF81030002B0CD0084A7C
:10ADB000084BD31ADB081B0443F00103BDF8102035
:10ADC0000749184608F070F8079B184609B030BDCF
:10ADD000544D0300EC4C03001C5103006851030068
:10ADE000A851030010B586B001900091009B9B888C
:10ADF000ADF80E30BDF80E30DB00019A1344063377
:10AE00000593019B1A79059B9A71009BDB7B012BB3
:10AE100002D0022B05D009E0019B1A88059B1A80FD
:10AE200004E0019B5A88059B1A8000BF059B1A8885
:10AE3000059B5B889A4226D9059B1A88BDF80E307F
:10AE400011461846FFF740FF0490049B002B03D1E6
:10AE5000059B01225A7116E0049B112B03D1059B1F
:10AE600001221A710FE0114A114BD31ADB081B049F
:10AE700043F00104049807F043FB03461A460D49CA
:10AE8000204608F011F8059B9A79059BDB799A42D8
:10AE900008D9059B9B799AB2BDF80E301146184629
:10AEA000FFF732FF00BF06B010BD00BF544D0300D6
:10AEB000EC4C03000052030000B583B001900091F8
:10AEC000009B9B88DB00019A134406331846FFF76A
:10AED00003FF00BF03B05DF804FB00B587B001902D
:10AEE0000091009B9B88ADF81630009B5B89ADF804
:10AEF0001430BDF81630DB00019A13440633049376
:10AF0000049B1B88BDF81420934228BF13469AB2B5
:10AF1000049B5A80049B5B88172B38BF17239AB277
:10AF2000049B5A80019B1B69002B15D0049B5B7905
:10AF3000002B11D040F67723ADF80830BDF816305D
:10AF4000ADF80A30049B5B88ADF80C30019B1B699F
:10AF500002AA114601989847049B00225A71049B4B
:10AF600000221A7100BF07B05DF804FB10B588B06D
:10AF700001900091009B9B88ADF81A30009BDB8804
:10AF8000ADF81830BDF81A30DB00019A13440633CF
:10AF90000593BDF81830172B38BF1723ADF81830BC
:10AFA000059B1B88BDF81820934228BF13469AB210
:10AFB000059B5A80059B00221A71059B1A88BDF8D3
:10AFC0001A3011461846FFF783FE0790079B002BA7
:10AFD0000FD0174A174BD31ADB081B0443F00104A8
:10AFE000079807F08DFA03461A461349204607F0E2
:10AFF0005BFF059B5B79002B16D1019B1B69002B26
:10B0000013D040F67723ADF80C30BDF81A30ADF808
:10B010000E30059B5B88ADF81030019B1B6903AABD
:10B0200011460198984700E000BF08B010BD00BF6E
:10B03000544D0300EC4C03003452030030B591B082
:10B0400001900091009B04AC1D1D0FCD0FC40FCDCE
:10B050000FC495E8070084E80700BDF81030ADF88C
:10B060003E30BDF81420BDF83E30D1B2019ADB006D
:10B0700013440A465A73019B1B69002B19D002AB7B
:10B0800000221A609A804DF67A23ADF80830BDF898
:10B090003E30ADF80A30BDF83E30019ADB00134473
:10B0A0005B7B8DF80C30019B1B6902AA114601984D
:10B0B000984700BF11B030BD00B587B00190009136
:10B0C000009B04330593059B1B88DB00019A134406
:10B0D00006330493059B9B888DF80F30049B9B7966
:10B0E0009DF80F20934228BF13468DF80E30059B24
:10B0F0001B889DF80E2092B211461846FFF704FEF9
:10B1000000BF07B05DF804FB00B585B00190009169
:10B11000019B002B01D10E231DE0019B009A1A61B7
:10B12000019BF7221A80019BF7225A80019BFB2288
:10B130001A71002303930AE0039BDB00019A134476
:10B1400006331846FFF7C8FD039B01330393039BA7
:10B15000002BF1D00023184605B05DF804FB82B047
:10B1600001900B46ADF80230019B002B01D10E235C
:10B170000EE0BDF80230162B03D9BDF80230F72BD4
:10B1800001D9072304E0019BBDF802201A800023A7
:10B19000184602B07047000010B586B001900091CB
:10B1A000009B0593019B9B88ADF81230BDF81230CF
:10B1B000002B40F09880019B1B88552B48D0552BC5
:10B1C00055DC242B32DC102B51DB103B142B4ED8DA
:10B1D00001A252F823F000BF33B202003DB20200D8
:10B1E0006FB202006FB202006FB202006FB20200D3
:10B1F0006FB202006FB202006FB202006FB20200C3
:10B200006FB202006FB202006FB202006FB20200B2
:10B210006FB202006FB202006FB202006FB20200A2
:10B220006FB2020065B202005BB202003A2B0AD094
:10B230001DE001990598FFF7D5FD19E001990598E2
:10B24000FFF73AFE14E001990598FFF746FE0FE07C
:10B2500001990598FFF78AFE0AE001990598FFF722
:10B26000EDFE05E001990598FFF726FF00E000BF1D
:10B27000BDF81230059ADB0013449B7A002B33D0C3
:10B28000BDF81230059ADB001344DA88BDF812309D
:10B2900011461846FFF718FD0390039B002B0ED1B3
:10B2A000BDF81230059ADB00134400229A72BDF8F3
:10B2B0001230059ADB0013440122DA7214E0039B7A
:10B2C000112B11D0094A0A4BD31ADB081B0443F097
:10B2D0000104039807F014F903461A46054920466D
:10B2E00007F0E2FD00E000BF06B010BD544D0300C2
:10B2F000EC4C030000520300B0DF704700BF18465B
:10B3000066DF704700BF184682B001900091019B34
:10B31000002B01D10E2316E0009B002B01D10E2340
:10B3200011E0019B1B78DE2B01D108230BE0009B71
:10B330001A68019B5A60019BDE221A70019B4FF62E
:10B34000FF725A800023184602B0704782B0019005
:10B350000B46ADF80230019B002B01D10E230AE011
:10B36000019B1B78DE2B01D0082304E0019BBDF874
:10B3700002205A800023184602B0704700B585B0FD
:10B380000190019B1B7A002B18D0019B5B88002148
:10B390001846FFF7B5FF0390039B002B03D1019BD9
:10B3A00000221A720AE0039B112B03D1019B012298
:10B3B0001A7203E0019B5B680398984700BF05B0D1
:10B3C0005DF804FB00B583B001900091009B1B79F0
:10B3D000012B0BD1009B1A88019B5B889A4205D1F7
:10B3E000019B01221A720198FFF7C8FF00BF03B04A
:10B3F0005DF804FB82B00190009100BF02B070477D
:10B4000000B589B001900091009B1A88019B5B8870
:10B410009A4236D1009B02330793079B1B78022B7D
:10B4200031D1079B1B7A042B07D0079B1B7A062B75
:10B4300003D0079B1B7A052B27D102AB00221A6091
:10B440005A609A60DA6002238DF808304FF4C073B6
:10B45000ADF80C30079B1B7A052B02D10023ADF809
:10B460000C30009B1B8802AA11461846FFF744FFC8
:10B470000690069B002B09D0019B5B6806989847B5
:10B4800004E000BF02E000BF00E000BF09B05DF8CB
:10B4900004FB00B585B001900091009B002B40D0CB
:10B4A000019B002B3FD0009B0393039B1B78DE2B5B
:10B4B0003BD1019B9A88039B5B889A4202D10398F7
:10B4C000FFF75CFF019B1B88512B18D0512B2EDC02
:10B4D000112B1BD0112B2ADC012B02D0022B07D001
:10B4E00025E0019B043319460398FFF76BFF21E029
:10B4F000019B043319460398FFF77CFF1AE0019B78
:10B50000043319460398FFF77BFF13E0019B9A88E9
:10B51000039B5B889A420CD1039B4FF6FF725A80C3
:10B5200007E000BF06E000BF04E000BF02E000BF8C
:10B5300000E000BF05B05DF804FB00B585B00190E8
:10B540000091009B06330393039B1A88019B5B8841
:10B550009A420FD1039B5B89012B0BD1019B5B6945
:10B56000002B07D0019B5B69009A9088039A127B9D
:10B570000199984700BF05B05DF804FB00B585B0A0
:10B5800001900091009B0393019B1B88502B04D1D9
:10B5900001990398FFF7D1FF00E000BF00BF05B09D
:10B5A0005DF804FBA8DF704700BF1846ADDF7047A9
:10B5B00000BF1846AEDF704700BF184662DF704715
:10B5C00000BF184600B58FB001900091002303938F
:10B5D000019B5869009B9B8803AA1946FFF779F9DC
:10B5E0000D9005AB08220021184608F0DCFF04ABE3
:10B5F00006930223ADF814300023ADF81630009BFB
:10B600009888019B1B8905AA1946FFF7CFFF0D906B
:10B610000D9B002B26D1019B9B69002B22D0069B02
:10B620001846FFF7B3F90346002B1BD0039B002BF2
:10B6300002D0039B01221A7007AB18220021184682
:10B6400008F0B1FF02238DF81C30019B0893009B8A
:10B650009B88ADF82430039B0A93019B9B6907AA42
:10B660001046984700BF0FB05DF804FB00B58DB0E1
:10B6700001900091009B06330B93019B5869009B3E
:10B680009B8803AA1946FFF724F90A9004AB1822F5
:10B690000021184608F087FF019B0593009B9B88BB
:10B6A000ADF81830039B07930B9B1A88019B1B89ED
:10B6B0009A4225D10B9B5B89022B21D1039B002B46
:10B6C00038D00B9B0C331846FFF760F90346002B6C
:10B6D00006D0039B01221A7002238DF8103005E07A
:10B6E000039B00221A7003238DF81030019B9B6985
:10B6F000002B1FD0019B9B6904AA1046984719E0B4
:10B700000B9B1A88019B9B899A4214D1019B9B69D0
:10B71000002B10D000238DF810300B9B0C330893B6
:10B720000B9B5B89ADF82430019B9B6904AA1046F2
:10B73000984700E000BF00BF0DB05DF804FB00B506
:10B740008BB001900091019B5869009B9B8802AAD5
:10B750001946FFF7BEF80990099B002B1ED1029BEA
:10B760001B78002B1BD0019B9B69002B17D003ABD0
:10B7700018220021184608F016FF01238DF80C301E
:10B78000019B0493009B9B88ADF81430029B0693A9
:10B79000019B9B6903AA1046984700E000BF0BB0CD
:10B7A0005DF804FB00B585B001900091009B002B73
:10B7B0001ED0019B002B1BD0009B0393019B1B8879
:10B7C000572B10D0572B15DC102B02D0502B05D047
:10B7D00010E001990398FFF7F5FE0CE0019903983A
:10B7E000FFF744FF07E001990398FFF7A8FF02E085
:10B7F00000BF00E000BF05B05DF804FB10B592B0DB
:10B80000019000914F4B0AAC0FCB84E80F00019BD5
:10B81000002B01D10E2391E0009B002B01D10E23C0
:10B820008CE0009B1A68019B9A61019A0AAB114651
:10B830001846FFF7C3FE1190119B1093109B002B2D
:10B8400001D0109B7AE0019B1B788DF83A300123E0
:10B85000ADF83830019B9A1C0EAB19460120FFF75A
:10B86000A1FE1190119B0F930F9B002B01D00F9BFA
:10B8700064E002AB20220021184608F094FE022367
:10B88000ADF80830019B1B788DF80A30F423ADF831
:10B890000C300123ADF80E3001238DF814309DF8E3
:10B8A000153043F008038DF815309DF8153043F03E
:10B8B00004038DF8153001238DF8193001238DF81C
:10B8C0001A30019B5888019B03F10C0202AB194608
:10B8D000FFF7E4F81190119B002B01D0119B2DE094
:10B8E00002AB20220021184608F05DFE0323ADF8CC
:10B8F0000830019B1B788DF80A30F423ADF80C302A
:10B900000123ADF80E3001238DF814309DF8153069
:10B9100043F010038DF8153001238DF81930012301
:10B920008DF81A3001238DF81B30019B5888019B3C
:10B930001A1D02AB1946FFF7B1F80346184612B0BC
:10B9400010BD00BF6C52030000B58DB00390029192
:10B950000192ADF80230039B002B01D10E2342E08F
:10B96000039B5B6905AABDF802101846FEF7B1FFFC
:10B970000B900B9B0A930A9B002B01D00A9B32E091
:10B98000BDF802304FF6FF72934202D0059B002BA8
:10B9900001D1052327E0059B1B7883F00103DBB26F
:10B9A000002B01D008231EE0019B1B88F42B01D93A
:10B9B000072318E006AB10220021184608F0F3FD1B
:10B9C000039B9B88ADF81830029B0993019B089359
:10B9D00001238DF81A3006AABDF802301146184628
:10B9E000FFF7E8FD034618460DB05DF804FB0000C4
:10B9F00082B003468DF807309DF90730002B13DB2A
:10BA00009DF8073003F01F0209499DF907305B09D3
:10BA1000012000FA02F2203341F82320BFF34F8FB8
:10BA200000BFBFF36F8F00BF00BF02B0704700BF01
:10BA300000E100E0044BD3F80034002B14BF0123D5
:10BA40000023DBB2184670470000014008B508F03B
:10BA50007DF9034683F00103DBB2002B03D10949D2
:10BA60007B20FAF725FEFFF7E5FF034683F001038D
:10BA7000DBB2002B04D000F04FFB034B00229A7086
:10BA800000BF08BD84520300EC34002000B583B031
:10BA900000230193184B1B78002B02D085230193C0
:10BAA0001CE0154B00229A60134B00225A60124B87
:10BAB00000221A61104B0022DA60104800F0F2FAFE
:10BAC000019008F043F9034683F00103DBB2002B39
:10BAD00001D000F00DFB084B01221A70FFF7AAFFFE
